:020000040800F2
:10000000000002202D53000829C3000831C3000856
:1000100055C300085DC3000865C300080000000068
:1000200000000000000000000000000059BC0008B3
:1000300099530008000000006DBC0008A9BF00082B
:1000400099530008995300089953000899530008E0
:1000500099530008995300087D630008A1630008C4
:10006000C5630008E96300080D640008995300089F
:10007000AD86000899530008D585000899530008FB
:10008000658600088D85000899530008995300087B
:1000900099530008995300089953000831640008E7
:1000A000995300089953000859C100089953000852
:1000B0009953000899530008995300089953000870
:1000C0009953000899530008995300089953000860
:1000D00099530008B5840008CD840008E584000821
:1000E0008D6400089953000899530008995300083B
:1000F0009953000899530008995300089953000830
:10010000995300089953000865BD000899530008E9
:10011000FD840008158500089953000899530008CC
:1001200099530008995300089953000899530008FF
:1001300099530008995300089953000899530008EF
:1001400099530008995300089953000899530008DF
:100150001D86000899530008458500082D85000874
:1001600099530008995300089953000899530008BF
:1001700099530008995300089953000899530008AF
:0C01800099530008995300080000000883
:1001900081F0004102E000BF83F0004330B54FEA38
:1001A00041044FEA430594EA050F08BF90EA020FA5
:1001B0001FBF54EA000C55EA020C7FEA645C7FEA38
:1001C000655C00F0E2804FEA5454D4EB5555B8BF5B
:1001D0006D420CDD2C4480EA020281EA030382EACC
:1001E000000083EA010180EA020281EA0303362D5E
:1001F00088BF30BD11F0004F4FEA01314FF4801C31
:100200004CEA113102D0404261EB410113F0004F42
:100210004FEA03334CEA133302D0524263EB4303F9
:1002200094EA050F00F0A780A4F10104D5F1200E97
:100230000DDB02FA0EFC22FA05F2801841F10001F2
:1002400003FA0EF2801843FA05F359410EE0A5F1C6
:1002500020050EF1200E012A03FA0EFC28BF4CF0F7
:10026000020C43FA05F3C01851EBE37101F00045AD
:1002700007D54FF0000EDCF1000C7EEB00006EEBBA
:100280000101B1F5801F1BD3B1F5001F0CD3490844
:100290005FEA30004FEA3C0C04F101044FEA44529B
:1002A00012F5800F80F09A80BCF1004F08BF5FEA22
:1002B000500C50F1000041EB045141EA050130BD02
:1002C0005FEA4C0C404141EB010111F4801FA4F1A5
:1002D0000104E9D191F0000F04BF01460020B1FAFA
:1002E00081F308BF2033A3F10B03B3F120020CDA32
:1002F0000C3208DD02F1140CC2F10C0201FA0CF010
:1003000021FA02F10CE002F11402D8BFC2F1200C74
:1003100001FA02F120FA0CFCDCBF41EA0C0190402A
:10032000E41AA2BF01EB0451294330BD6FEA040473
:100330001F3C1CDA0C340EDC04F11404C4F120025E
:1003400020FA04F001FA02F340EA030021FA04F370
:1003500045EA030130BDC4F10C04C4F1200220FAC7
:1003600002F001FA04F340EA0300294630BD21FA05
:1003700004F0294630BD94F0000F83F4801306BFCB
:1003800081F480110134013D4EE77FEA645C18BFBF
:100390007FEA655C29D094EA050F08BF90EA020F56
:1003A00005D054EA000C04BF1946104630BD91EA4E
:1003B000030F1EBF0021002030BD5FEA545C05D151
:1003C0004000494128BF41F0004130BD14F5800490
:1003D0003CBF01F5801130BD01F0004545F0FE4104
:1003E00041F470014FF0000030BD7FEA645C1ABF39
:1003F000194610467FEA655C1CBF0B46024650EA70
:10040000013406BF52EA033591EA030F41F400219B
:1004100030BD00BF90F0000F04BF0021704730B521
:100420004FF4806404F132044FF000054FF00001F6
:1004300050E700BF90F0000F04BF0021704730B5B7
:100440004FF4806404F1320410F0004548BF40428C
:100450004FF000013EE700BF42004FEAE2014FEAE1
:1004600031014FEA02701FBF12F07F4393F07F4FBC
:1004700081F06051704792F0000F14BF93F07F4FEE
:10048000704730B54FF4607401F0004521F0004131
:1004900020E700BF50EA010208BF704730B54FF0B7
:1004A00000050AE050EA010208BF704730B511F0BC
:1004B000004502D5404261EB41014FF4806404F1F4
:1004C00032045FEA915C3FF4DCAE4FF003025FEA76
:1004D000DC0C18BF03325FEADC0C18BF033202EBFE
:1004E000DC02C2F1200300FA03FC20FA02F001FA58
:1004F00003FE40EA0E0021FA02F11444C1E600BFF7
:1005000070B54FF0FF0C4CF4E06C1CEA11541DBFA9
:100510001CEA135594EA0C0F95EA0C0F00F0DEF874
:100520002C4481EA030621EA4C5123EA4C5350EA59
:10053000013518BF52EA033541F4801143F48013AA
:1005400038D0A0FB02CE4FF00005E1FB02E506F03B
:100550000042E0FB03E54FF00006E1FB03569CF090
:10056000000F18BF4EF0010EA4F1FF04B6F5007F96
:1005700064F5407404D25FEA4E0E6D4146EB060608
:1005800042EAC62141EA55514FEAC52040EA5E5091
:100590004FEACE2EB4F1FD0C88BFBCF5E06F1ED83B
:1005A000BEF1004F08BF5FEA500E50F1000041EB72
:1005B000045170BD06F0004646EA010140EA02001F
:1005C00081EA0301B4EB5C04C2BFD4EB0C0541EA41
:1005D000045170BD41F480114FF0000E013C00F356
:1005E000AB8014F1360FDEBF002001F0004170BD7A
:1005F000C4F10004203C35DA0C341BDC04F1140493
:10060000C4F1200500FA05F320FA04F001FA05F21E
:1006100040EA020001F0004221F0004110EBD370EB
:1006200021FA04F642EB06015EEA430E08BF20EA17
:10063000D37070BDC4F10C04C4F1200500FA04F3BA
:1006400020FA05F001FA04F240EA020001F000414C
:1006500010EBD37041F100015EEA430E08BF20EABF
:10066000D37070BDC4F1200500FA05F24EEA020E07
:1006700020FA04F301FA05F243EA020321FA04F036
:1006800001F0004121FA04F220EA020000EBD370ED
:100690005EEA430E08BF20EAD37070BD94F0000FED
:1006A0000FD101F00046400041EB010111F4801F21
:1006B00008BF013CF7D041EA060195F0000F18BFD2
:1006C000704703F00046520043EB030313F4801F0E
:1006D00008BF013DF7D043EA0603704794EA0C0FC8
:1006E0000CEA135518BF95EA0C0F0CD050EA4106DE
:1006F00018BF52EA4306D1D181EA030101F000415B
:100700004FF0000070BD50EA410606BF1046194682
:1007100052EA430619D094EA0C0F02D150EA01368E
:1007200013D195EA0C0F05D152EA03361CBF1046CF
:1007300019460AD181EA030101F0004141F0FE416E
:1007400041F470014FF0000070BD41F0FE4141F4F2
:10075000780170BD70B54FF0FF0C4CF4E06C1CEAF2
:1007600011541DBF1CEA135594EA0C0F95EA0C0FA7
:1007700000F0A7F8A4EB050481EA030E52EA033562
:100780004FEA013100F088804FEA03334FF0805583
:1007900045EA131343EA12634FEA022245EA1115B0
:1007A00045EA10654FEA00260EF000419D4208BF61
:1007B000964244F1FD0404F5407402D25B084FEA0E
:1007C0003202B61A65EB03055B084FEA32024FF4BA
:1007D00080104FF4002CB6EB020E75EB030E22BF17
:1007E000B61A754640EA0C005B084FEA3202B6EBD7
:1007F000020E75EB030E22BFB61A754640EA5C0086
:100800005B084FEA3202B6EB020E75EB030E22BF15
:10081000B61A754640EA9C005B084FEA3202B6EB16
:10082000020E75EB030E22BFB61A754640EADC00D5
:1008300055EA060E18D04FEA051545EA16754FEA37
:1008400006164FEAC30343EA52734FEAC2025FEA55
:100850001C1CC0D111F4801F0BD141EA00014FF0E4
:1008600000004FF0004CB6E711F4801F04BF0143B5
:100870000020B4F1FD0C88BFBCF5E06F3FF6AFAED1
:10088000B5EB030C04BFB6EB020C5FEA500C50F161
:10089000000041EB045170BD0EF0004E4EEA1131E4
:1008A00014EB5C04C2BFD4EB0C0541EA045170BDEB
:1008B00041F480114FF0000E013C90E645EA060E2F
:1008C0008DE60CEA135594EA0C0F08BF95EA0C0F5D
:1008D0003FF43BAF94EA0C0F0AD150EA01347FF4A5
:1008E00034AF95EA0C0F7FF425AF104619462CE77C
:1008F00095EA0C0F06D152EA03353FF4FDAE1046DF
:10090000194622E750EA410618BF52EA43067FF42F
:10091000C5AE50EA41047FF40DAF52EA43057FF4BF
:10092000EBAE12E74FF0FF3C06E000BF4FF0010CCA
:1009300002E000BF4FF0010C4DF804CD4FEA410C2E
:100940007FEA6C5C4FEA430C18BF7FEA6C5C1BD0FB
:1009500001B050EA410C0CBF52EA430C91EA030F7C
:1009600002BF90EA020F0020704710F1000F91EAD9
:10097000030F58BF994208BF90422CBFD8176FEAA7
:10098000E37040F0010070474FEA410C7FEA6C5C75
:1009900002D150EA013C07D14FEA430C7FEA6C5C7C
:1009A000D6D152EA033CD3D05DF8040B704700BFA8
:1009B0008446104662468C461946634600E000BFF6
:1009C00001B5FFF7B7FF002848BF10F1000F01BDC8
:1009D0004DF808EDFFF7F4FF0CBF012000205DF893
:1009E00008FB00BF4DF808EDFFF7EAFF34BF012018
:1009F00000205DF808FB00BF4DF808EDFFF7E0FFB1
:100A000094BF012000205DF808FB00BF4DF808ED01
:100A1000FFF7CEFF94BF012000205DF808FB00BF68
:100A20004DF808EDFFF7C4FF34BF012000205DF84A
:100A300008FB00BF4FEA410212F5001215D211D592
:100A40006FF47873B3EB625212D94FEAC12343F0CB
:100A5000004343EA505311F0004F23FA02F018BF4D
:100A6000404270474FF00000704750EA013005D116
:100A700011F0004008BF6FF0004070474FF00000D9
:100A8000704700BF4A0011D212F5001211D20DD5E5
:100A90006FF47873B3EB62520ED44FEAC12343F084
:100AA000004343EA505323FA02F070474FF000002E
:100AB000704750EA013002D14FF0FF3070474FF0DD
:100AC000000070474FEA4102B2F1E04324BFB3F5A2
:100AD000001CDCF1FE5C0DD901F0004C4FEAC002B5
:100AE0004CEA5070B2F1004F40EB830008BF20F099
:100AF0000100704711F0804F21D113F13872BCBF53
:100B000001F00040704741F480114FEA5252C2F1A7
:100B10001802C2F1200C10FA0CF320FA02F018BFF0
:100B200040F001004FEAC1234FEAD32303FA0CFC43
:100B300040EA0C0023FA02F34FEA4303CCE77FEAD2
:100B4000625307D150EA01331EBF4FF0FE4040F41C
:100B50004000704701F0004040F0FE4040F40000CB
:100B6000704700BF73B96AB9002908BF0028BCBF2D
:100B700000204FF00041C4BF6FF000414FF0FF3044
:100B800000F08CB882B0EC462DE9005000F056F829
:100B9000DDF804E002B00CBC704700BF4BB942B9AD
:100BA000002908BF002802D04FF0FF31084600F0AE
:100BB00075B882B0EC462DE9005000F057F8DDF82A
:100BC00004E002B00CBC704738B500220023044694
:100BD0000D46FFF707FF28B920462946BDE83840F3
:100BE00000F00AB8204605F1004100F005F8404247
:100BF00061EB410138BD00BF70B500220D4B0446CA
:100C00000D46FFF77DFCFFF73DFF0646FFF702FCB0
:100C10000022094BFFF774FC02460B46204629468A
:100C2000FFF7BAFAFFF72EFF002242EA000420463F
:100C3000314670BD0000F03D0000F0412DE97043E9
:100C4000069E14461D468046894600F029F804FB9E
:100C500001F300FB0533A4FB00451D44B8EB04047D
:100C600069EB0505C6E90045BDE870832DE97043D1
:100C7000069E1446804689461D4600F05DF900FB3D
:100C800005F504FB0153A0FB04451D44B8EB040427
:100C900069EB0505C6E90045BDE87083704700BFF4
:100CA00000292DE9F00FC0F29F800024002BC0F234
:100CB0009680154606460F46002B3ED18A4257D9EC
:100CC000B2FA82F34BB1C3F1200201FA03F720FA22
:100CD00002F29D40174300FA03F6290CB7FBF1F22C
:100CE000330C01FB127CA8B243EA0C4700FB02F371
:100CF000BB4209D97F1902F1FF3C80F00181BB4260
:100D000040F2FE80023A2F44FF1AB7FBF1F3B6B26D
:100D100001FB137146EA014100FB03F0884208D948
:100D2000491903F1FF3780F0ED80884240F2EA80F4
:100D3000023B43EA0242002303E08B420AD900232C
:100D40001A461046194614B1404261EB4101BDE814
:100D5000F00F7047B3FA83F8B8F1000F40F08480C9
:100D60008B4202D3824200F2DE8000230122E8E7B8
:100D700012B90123B3FBF2F5B5FA85F2002A39D195
:100D80007F1B280C1FFA85FC0123B7FBF0F1320C06
:100D900000FB117742EA07470CFB01F2BA4207D980
:100DA0007F1901F1FF3802D2BA4200F2C1804146F8
:100DB000BF1AB7FBF0F2B6B200FB127046EA004071
:100DC0000CFB02FC844507D9401902F1FF3702D21F
:100DD000844500F2AB803A4642EA0142B1E7E4437F
:100DE000524263EB430364E7404261EB41014FF041
:100DF000FF345BE79540C2F1200327FA03F1280C8A
:100E000026FA03F39740B1FBF0F81F433B0C00FBBD
:100E100018111FFA85FC43EA01410CFB08F38B42D1
:100E200006FA02F608D9491908F1FF3279D28B4245
:100E300077D9A8F102082944C91AB1FBF0F3BFB26F
:100E400000FB131147EA01470CFB03F2BA4207D932
:100E50007F1903F1FF3160D2BA425ED9023B2F44C1
:100E6000BF1A43EA084390E7C8F1200203FA08FCDE
:100E700025FA02F343EA0C0C4FEA1C4921FA02F36B
:100E800001FA08F720FA02F2B3FBF9F1174309FB64
:100E900011333A0C1FFA8CFB42EA03430BFB01FAB5
:100EA0009A4505FA08F008D913EB0C0301F1FF325B
:100EB00035D29A4533D902396344CAEB0303B3FBF5
:100EC000F9F209FB1233BFB247EA03470BFB02F901
:100ED000B94508D917EB0C0702F1FF331BD2B9450E
:100EE00019D9023A674442EA0145A5FB0001C9EB62
:100EF00007078F424FF000030AD305D02A4620E7A8
:100F0000624601E73B4614E706FA08F68642F5D248
:100F10006A1E002315E71A46E5E70B46A0E71146CF
:100F2000CBE7904688E7434642460AE7023A53E752
:100F300002392F443CE700BF2DE9F00F1446054667
:100F40000E46002B43D18A4253D9B2FA82F757B1E9
:100F5000C7F1200620FA06F601FA07F302FA07F4B1
:100F60001E4300FA07F5210CB6FBF1F22B0C01FB36
:100F70001267A0B243EA074600FB02F3B34209D965
:100F8000361902F1FF3780F0F680B34240F2F38069
:100F9000023A2644F61AB6FBF1F3ADB201FB136137
:100FA00045EA014100FB03F0884208D9091903F121
:100FB000FF3680F0E280884240F2DF80023B43EA65
:100FC0000242002310461946BDE8F00F70478B42DD
:100FD0004AD8B3FA83F6002E4DD18B4202D3824217
:100FE00000F2D6800023012210461946BDE8F00F1A
:100FF000704712B90124B4FBF2F4B4FA84F2002A67
:101000007CD1091B260CA7B20123B1FBF6F02A0CF8
:1010100006FB101142EA014107FB00F28A4207D9A0
:10102000091900F1FF3C02D28A4200F2C3806046F7
:10103000891AB1FBF6F2ADB206FB121145EA014581
:1010400007FB02F7AF4208D92C1902F1FF3180F0FB
:101050009680A74240F29380023A42EA004210464C
:101060001946BDE8F00F704700231A46104619468E
:10107000BDE8F00F7047C6F1200522FA05F4B34031
:101080001C434FEA144821FA05F301FA06F720FA47
:1010900005F5B3FBF8FC2F4308FB1C333D0C1FFA8E
:1010A00084FA45EA03430AFB0CF9994502FA06FB68
:1010B00004D91B190CF1FF326DD39446C9EB03031D
:1010C000B3FBF8F508FB1533BFB247EA03470AFB49
:1010D00005F8B84504D93F1905F1FF3361D31D4622
:1010E00045EA0C4CACFB0B23C8EB07079F424FF0C3
:1010F000000549D345D062462B4663E79440C2F1D0
:10110000200321FA03FC260C20FA03F301FA02F56E
:10111000BCFBF6F843EA05010B0C06FB18CCA7B2A2
:1011200043EA0C4C07FB08F3634500FA02F509D9C2
:101130001CEB040C08F1FF323AD2634538D9A8F110
:101140000208A444C3EB0C0CBCFBF6F389B206FB0B
:1011500013CC41EA0C4107FB03F28A4207D9091973
:1011600003F1FF3022D28A4220D9023B2144891A5E
:1011700043EA084349E73A460CE733461FE70A4685
:101180006BE7B0409042B6D20CF1FF32002319E772
:101190003346324616E799458FD9ACF1020C234409
:1011A0008CE7B8459BD9023D274499E70346DEE723
:1011B0009046C7E7023821443AE700BF80B483B0C5
:1011C00000AF786039607B683A685A600C37BD467A
:1011D0005DF8047B704700BF80B483B000AF7860D7
:1011E00039607B683A689A600C37BD465DF8047BCD
:1011F000704700BF80B483B000AF786039607B680F
:101200003A685A600C37BD465DF8047B704700BFF2
:1012100080B483B000AF786039607B683A685A6107
:101220000C37BD465DF8047B704700BF80B584B0C5
:1012300000AFF860B9607A60FB6818462349642201
:101240004FF4FA630BF02CFCFB68214A1A60FB6830
:101250007A685A66FB68002283F85120FB680022F6
:1012600083F85520FB68002283F85A20FB6800228F
:1012700083F85220FB68002283F85420FB68002288
:1012800083F85820FB68002283F85720FB6800226F
:1012900083F85920FB680022DA65FB68012283F895
:1012A0005020FB68012283F85320FB68002283F85A
:1012B0005B20FB68002283F85620FB684FF0000299
:1012C0001A66FB6818461037BD4680BDB01201088B
:1012D000C823010880B582B000AF78607B68084AF7
:1012E0001A607B6818460BF049FC0023002B02D0E3
:1012F000786803F0DFF97B6818460837BD4680BD83
:10130000C823010880B582B000AF78607868FFF725
:10131000E1FF786803F0CEF97B6818460837BD46D0
:1013200080BD00BF80B483B000AF78600C37BD468D
:101330005DF8047B704700BF2DE9B043C4B004AF33
:1013400078607B6807F170021046194601F098F941
:1013500007F17003184601F043FC0023C7F8FC3086
:101360000023C7F8F830934BC7F8F43007F138037F
:101370001846914902F064F907F10C03184602F08F
:101380006BFA0023C7F8F0307B685B6E184602F0FA
:1013900085FB7B684FF000021A667B6893F8533038
:1013A000002B0AD007F17003184601F0F9FD07F190
:1013B0003803184602F088F926E17B6893F852302A
:1013C000002B0AD007F17003184601F0B1FE07F1B7
:1013D0003803184602F078F916E17B6893F8543028
:1013E000002B0AD007F17003184601F011FC07F139
:1013F0003803184602F068F906E17B6893F8553027
:10140000002B2ED07B68DB6D1846FFF713F80246E1
:101410000B46104619464FF00002684BFFF79AF949
:1014200002460B46664802F0ABFE7B68DB6D184651
:10143000FFF700F802460B46104619464FF000022F
:101440005E4BFFF787F902460B4610461946FFF739
:1014500039FB034607F138021046194602F066F9D7
:10146000D2E07B6893F85A30002B24D07B68DB6D88
:101470001846FEF7DFFF02460B46104619464FF0AE
:101480000002504BFFF766F902460B46104619461C
:10149000FFF718FB034607F10C0210461946FFF749
:1014A000B7FE3B6A1846FEF7D7FF02460B46464892
:1014B00002F066FEA8E07B6893F85930002B24D038
:1014C0007B68DB6D1846FEF7B5FF02460B461046FB
:1014D00019464FF000023B4BFFF73CF902460B4622
:1014E00010461946FFF7EEFA034607F10C021046C4
:1014F0001946FFF77FFE7B691846FEF7ADFF0246EF
:101500000B46324802F03CFE7EE07B6893F8583090
:10151000002B24D07B68DB6D1846FEF78BFF02465C
:101520000B46104619464FF00002264BFFF712F902
:1015300002460B4610461946FFF7C4FA034607F168
:101540000C0210461946FFF747FE7B691846FEF766
:1015500083FF02460B461E4802F012FE54E07B68F1
:1015600093F85730002B37D07B68DB6D1846FEF7B9
:1015700061FF02460B46104619464FF00002114B20
:10158000FFF7E8F802460B4610461946FFF79AFAAD
:10159000034607F10C0210461946FFF70FFE3B69A0
:1015A0001846FEF759FF02460B460A4802F0E8FDCE
:1015B0002AE000BF000020410AD7233C0000594028
:1015C000C012010800408F40D8120108FC12010827
:1015D0001C1301083C1301087B6893F85630002B5C
:1015E00012D07B68DB6D07EE103AF8EEC77A7B68A5
:1015F000C3ED187A7B681B6E1846FEF72DFF024676
:101600000B46744802F0BCFD7B68002283F85A2028
:101610007B6893F85A207B6883F858207B6893F89E
:1016200058207B6883F859207B6893F859207B68A1
:1016300083F857207B6893F857207B6883F85620FF
:101640007B6893F856207B6883F855207B6893F875
:1016500055207B6883F854207B6893F854207B687E
:1016600083F853207B6893F853207B6883F85220DB
:101670007B6893F852207B6883F8512007F1700350
:10168000184601F005FA07F17003184601F0E0FB77
:101690007B681A6ED7F8943007F10C0108461146A2
:1016A0001A4602F037F90346C7F8F030D7F8FC3095
:1016B0005A1CC7F8FC200A2B06DD7B6893F85030D3
:1016C000002B01D0012300E00023002B59D0002380
:1016D000C7F8FC303B691846FEF7BEFE04460D46CF
:1016E0007B691846FEF7B8FE804689463B6A184675
:1016F000FEF7B2FE02460B46CDE90089CDE9022392
:10170000354822462B4602F03BFDD7F89430184668
:10171000FEF7A2FE04460D467B681B6E1846FEF7D8
:101720009BFE02460B46CDE900232C4822462B4661
:1017300002F026FD7B6A1846FEF78EFE04460D4633
:10174000BB6A1846FEF788FE02460B46CDE9002329
:10175000234822462B4602F013FD2248D7F8F0100A
:1017600002F00EFD7B6893F85B30002B03D01E481F
:1017700002F006FD02E01D4802F002FD1C4802F0E6
:10178000FFFC7B6893F85B30002B08D07B685A6EB7
:10179000D7F8F0301046194602F0B0F905E07B6842
:1017A0005B6E1846002102F0A9F97B6893F851306E
:1017B000002B01D000BFF0E503F0BCF80D4A4FF05C
:1017C0000003121843EB01031046194600220BF0E8
:1017D000B7FA53E75C130108701301088813010876
:1017E000A0130108B8130108CC130108E413010881
:1017F000F41301088096980080B584B000AFF860BB
:10180000B9607A60FB681846084964224FF4FA63AD
:101810000BF046F9FB68064A1A60FB687A681A659D
:10182000FB6818461037BD4680BD00BF0C14010888
:10183000E023010880B582B000AF78607B68084A79
:101840001A607B6818460BF099F90023002B02D030
:10185000786802F02FFF7B6818460837BD4680BDC8
:10186000E023010880B582B000AF78607868FFF7A8
:10187000E1FF786802F01EFF7B6818460837BD4616
:1018800080BD00BF80B483B000AF78600C37BD4628
:101890005DF8047B704700BF80B584B000AF78600E
:1018A0004FF0FF306FF0004100220BF049FA26485C
:1018B00002F066FC254802F063FC7B681B6D18464D
:1018C0004FF47A7102F01AF90023FB6013E003F081
:1018D00031F81BA3D3E90023121843EB0103104690
:1018E000194600220BF02CFAFB68C3F112031848CA
:1018F000194602F045FCFB685A1CFA60112BCCBF5C
:1019000000230123DBB2002BE1D1124802F038FCA6
:101910007B681B6D1846002102F0F0F84FF0FF3095
:101920006FF0004100220BF00BFA0B4802F028FC8C
:101930004FF0FF306FF0004100220BF001FAF4E7A6
:1019400000CA9A3B000000001C140108381401086A
:101950005C140108641401087C140108AFF30080D2
:1019600080B582B000AF78607B689B685B42786826
:10197000194602F0C3F80837BD4680BD80B582B075
:1019800000AF78607B689B687868194602F0B6F80B
:101990000837BD4680BD00BF80B582B000AF78601B
:1019A0007868002102F0AAF80837BD4680BD00BF64
:1019B00080B483B000AF78607B68012283F8512047
:1019C0000C37BD465DF8047B704700BF80B483B020
:1019D00000AF78607B68012283F852200C37BD4647
:1019E0005DF8047B704700BF80B483B000AF7860BF
:1019F0007B68012283F853200C37BD465DF8047BD9
:101A0000704700BF80B483B000AF78607B6801226C
:101A100083F854200C37BD465DF8047B704700BF47
:101A200080B483B000AF78607B68012283F85620D1
:101A30000C37BD465DF8047B704700BF80B483B0AF
:101A400000AF78607B68012283F859200C37BD46CF
:101A50005DF8047B704700BF80B483B000AF78604E
:101A60007B68012283F857200C37BD465DF8047B64
:101A7000704700BF80B483B000AF78607B680122FC
:101A800083F858200C37BD465DF8047B704700BFD3
:101A900080B483B000AF78607B68012283F85A205D
:101AA0000C37BD465DF8047B704700BF80B483B03F
:101AB00000AF786039607B683A68DA650C37BD46FC
:101AC0005DF8047B704700BF80B483B000AF7860DE
:101AD0007B6893F85B3083F00103DAB27B6883F8AC
:101AE0005B200C37BD465DF8047B704780B483B043
:101AF00000AF78607B6893F8503083F00103DAB26E
:101B00007B6883F850207B6893F8503018460C3778
:101B1000BD465DF8047B704780B582B000AF786049
:101B200039607B6818460A4964224FF4FA630AF068
:101B3000B7FF7B68074A1A607B6800225A657B689A
:101B40005A6D7B681A657B6818460837BD4680BDAC
:101B5000A4140108F823010880B582B000AF7860B2
:101B60007B68084A1A607B6818460BF007F8002368
:101B7000002B02D0786802F09DFD7B68184608377C
:101B8000BD4680BDF823010880B582B000AF786003
:101B90007868FFF7E1FF786802F08CFD7B681846F3
:101BA0000837BD4680BD00BF80B582B000AF786009
:101BB000054801F073FF054801F070FF044801F08B
:101BC0006DFF0837BD4680BDE00B0020FC0B0020F8
:101BD000180C002080B590B000AF78604FF0FF3354
:101BE000FB63002387F83B307B6800225A657B68E3
:101BF0005A6D7B681A654FF0FF33FB63002387F84B
:101C00003B30FB6B0133FB6332484FF0FF326FF028
:101C1000004302F0D3FB2F4806F0BCFF0346786870
:101C2000194600F0EDF9034687F83A3007F108024B
:101C3000FB6B134497F83A201A7097F93A300A2B45
:101C400026D197F83B3083F00103DBB2002B0FD095
:101C500007F10802FB6B134400221A7007F1080316
:101C60007868194600F05CF902467B681A652CE03A
:101C700007F10802FB6B134400221A7007F10803F6
:101C80007868194600F07CF902467B685A651CE0CA
:101C900097F93A30202B14D107F10802FB6B13445B
:101CA00000221A7007F108037868194600F038F925
:101CB00002467B681A65012387F83B304FF0FF33FB
:101CC000FB6397F93A300A2B9BD1786800F004F84F
:101CD00091E700BF8C22002080B584B000AF78600F
:101CE0007B681B6D152B00F2EE8001A252F823F0E9
:101CF000491D0008631D00087D1D0008971D000890
:101D0000B11D0008CB1D0008D31D0008E11D00080F
:101D1000EF1D0008FD1D00082F1E0008371E0008DB
:101D2000531E0008611E00086F1E00087D1E00087B
:101D30008B1E00089F1E0008A71E0008AF1E00088B
:101D4000B71E0008BF1E00087B685B6D634819461C
:101D5000FFF7ACFE6148FFF72BFE6048FFF798FEE7
:101D6000B8E07B685B6D5D481946FFF79FFE5B48F6
:101D7000FFF71EFE5948FFF761FEABE07B685B6D25
:101D800056481946FFF792FE5448FFF711FE534894
:101D9000FFF770FE9EE07B685B6D50481946FFF7C9
:101DA00085FE4E48FFF704FE4C48FFF755FE91E0D4
:101DB0007B685B6D49481946FFF778FE4748FFF797
:101DC000F7FD4648FFF72CFE84E04448FFF77CFE11
:101DD00080E04248FFF7ECFD4048FFF713FE79E052
:101DE0003E48FFF7E5FD3D48FFF7FEFD72E03B484A
:101DF000FFF7DEFD3948FFF7E9FD6BE00023FB60EC
:101E000010E0FA681346DB009B1A9B00344A134427
:101E1000184600F01FFC0346184602F0B1F9FB68B3
:101E20000133FB60FA6816239A42EAD352E02D4848
:101E300002F0A6F94EE02948FFF758FE0346002BB2
:101E400003D0294802F09CF944E0284802F098F9B0
:101E500040E07B685B6D2648194602F091F939E055
:101E6000244802F08DF92448FFF788FD32E023482A
:101E700002F086F92048FFF78FFD2BE0204802F0A2
:101E80007FF91D48FFF76CFD24E01E4802F078F949
:101E90007B685B6D1C48194601F030FE1AE01B4858
:101EA0000AF032FF16E01A4802F06AF912E0194807
:101EB00002F066F90EE0184802F062F90AE01648EE
:101EC00002F05EF906E07B681B6D1448194602F0CB
:101ED00057F900BF1037BD4680BD00BF900C0020F1
:101EE000D0080020B4140108E0140108F41401081B
:101EF0000415010814150108180C00202415010808
:101F00003415010844150108E00B0020380C0020AE
:101F10005415010870150108881501089C15010861
:101F200080B584B000AF786039600023FB601BE0AF
:101F3000FA681346DB009B1A9B00104A13441846AC
:101F400000F07CFB03461846396802F07DFB03462F
:101F5000002B14BF00230123DBB2002B01D0FB6850
:101F600008E0FB680133FB60FA6816239A42DFD36E
:101F70004FF0FF3318461037BD4680BDD008002013
:101F800080B487B000AF786039603B681B785BB283
:101F90002D2B14BF00230123FB7200237B6101233F
:101FA0003B610023FB60FB7A002B04D001237B61A3
:101FB0004FF0FF333B6111E0FA6813469B00134476
:101FC0005B00FB607B693A6813441B785BB2303B73
:101FD000FA681344FB607B6901337B617B693A6873
:101FE00013441B78002BE7D1FB683A6902FB03F32B
:101FF000FB60FB6818461C37BD465DF8047B7047E4
:1020000080B483B000AF786039603B68602B08DD36
:102010003B687A2B05DC3B68DBB2203BDBB2DBB2F2
:1020200001E03B68DBB25BB218460C37BD465DF899
:10203000047B704790B583B000AF7860064C074BC7
:102040009C4205D01C3C23681B6820469847F6E755
:102050000C37BD4690BD00BF380B0020D0080020D3
:1020600090B585B002AF786039607B68012B40F095
:1020700030813A684FF6FF739A4240F02A81964CBD
:102080004FF4B4730093954B019320469449954ABD
:10209000002300F089FA1C344FF47A730093924BBA
:1020A0000193204691498F4A002300F07DFA1C34A9
:1020B0004FF47A7300938E4B019320468D49894AE1
:1020C000002300F071FA1C344FF47A7300938A4BAA
:1020D000019320468949834A002300F065FA1C34A5
:1020E0004FF4B4730093864B0193204685497D4A93
:1020F000002300F059FA1C344FF4B4730093824B60
:10210000019320468149774A002300F04DFA1C34A0
:1021100020467F49734A7F4B00F020FA1C3420464A
:102120007D49704A7D4B00F019FA1C3420467C49E9
:102130006C4A7C4B00F012FA1C3420467A49694AFA
:102140007A4B00F00BFA1C3420467949654A794BEA
:1021500000F004FA1C3420467749624A774B00F0BD
:10216000FDF91C34764B0093764B0193204676495B
:102170005C4A734B00F018FA1C3420467349594AE4
:10218000734B00F0EBF91C3420467249554A724BF0
:1021900000F0E4F91C3420467049524A704B00F0BC
:1021A000DDF91C3420466F494E4A6F4B00F0D6F9DA
:1021B0001C3420466D494B4A6D4B00F0CFF91C345E
:1021C00020466C49474A6C4B00F0C8F91C344FF468
:1021D000B4730093694B019320466949414A002337
:1021E00000F0E2F91C344FF4B4730093654B019393
:1021F000204665493B4A002300F0D6F904F11C0350
:102200004FF4B4720092614A019218466049354A0F
:10221000002300F0C9F900205E495F4A0BF0E4FB9F
:102220005E485F4900F0F4F85C485E495A4A0BF09A
:10223000DBFB5D485D49FFF76FFC5B485C49564A34
:102240000BF0D2FB5B4B00935B4B01935B484FF46D
:102250007A714FF47A725A4B01F0D6FB57485949BC
:102260004D4A0BF0C1FB584B0093584B0193584813
:102270004FF47A714FF47A72564B01F0C5FB544813
:102280005049454A0BF0B0FB534B0093534B01931D
:1022900053484FF47A714FF47A72524B01F0B4FB09
:1022A0004F4848493C4A0BF09FFB4F484F49434A2F
:1022B000FFF7A2FA4C484E49374A0BF095FB4D48C0
:1022C0004D49434AFEF7B2FF4A484C49324A0BF0A7
:1022D0008BFB0C37BD4690BDD0080020C41501080B
:1022E000B0150108B8150108E8150108E015010846
:1022F0000816010800160108281601082016010812
:102300004816010840160108681601086016010801
:102310008C16010894160108B0160108B8160108B9
:10232000D0160108D8160108F4160108FC16010899
:102330001817010820170108341701083C17010875
:1023400018FCFFFF78170108701701089C17010897
:10235000A4170108C0170108C8170108E4170108ED
:10236000EC170108041801080C18010834180108BA
:102370003C1801087018010878180108BC180108F9
:10238000B4180108E0180108D81801080C19010850
:102390000419010835200008DC100020380B00204B
:1023A0003419010845240008880B00204019010851
:1023B000591B0008F40D0020100E0020E00B002037
:1023C000D80D0020553A0008480E0020640E002069
:1023D000FC0B00202C0E00209C0E0020B80E0020CC
:1023E000180C0020800E0020380C00204C19010829
:1023F00035180008900C002054190108D512000867
:1024000080B500AF01204FF6FF71FFF729FE80BDB8
:1024100080B582B000AF786039607B6818460749A4
:1024200064224FF4FA630AF03BFB7B68044A1A60AB
:102430007B6818460837BD4680BD00BF5C1901089F
:102440001024010880B582B000AF78607B68084A2C
:102450001A607B6818460AF091FB0023002B02D01B
:10246000786802F027F97B6818460837BD4680BDBA
:102470001024010880B582B000AF78607868FFF75B
:10248000E1FF786802F016F97B6818460837BD4608
:1024900080BD00BF80B582B000AF786006484FF4C1
:1024A000E13106F027F9054801210122012303F05B
:1024B0000FFD0837BD4680BDBC0D0020F80C002084
:1024C00090B585B002AF78607C6802F033FA0246BE
:1024D0000B4610A1D1E90001CDE90001204602F030
:1024E000A9F908E00A4803F045FE0346DB43084823
:1024F000194603F0F3FD7B68184602F0B1F9012399
:10250000002BEFD10C37BD4690BD00BFAFF300806C
:10251000F80C002000CA9A3B00000000AFF30080D6
:1025200080B582B000AF786039607B68012B08D13C
:102530003A684FF6FF739A4203D103483F2103F0F4
:1025400093FC0837BD4680BDF80C002080B500AF75
:1025500001204FF6FF71FFF7E3FF80BD80B485B027
:1025600000AFF860B9607A603B60FB680D4A1A60A2
:10257000FB68BA685A60FB687A689A60FB683A68D8
:10258000DA60FB6800221A61FB6800225A61FB686E
:1025900000221A76FB6818461437BD465DF8047BA6
:1025A000704700BF2824010880B485B000AFF860F0
:1025B000B9607A603B60FB680D4A1A60FB68BA68D4
:1025C0005A60FB687A689A60FB68FA69DA60FB68AF
:1025D0003A681A61FB68BA695A61FB6801221A7687
:1025E000FB6818461437BD465DF8047B704700BF92
:1025F0002824010880B582B000AF78607B68064A65
:102600001A600023002B02D0786802F053F87B6830
:1026100018460837BD4680BD2824010880B582B021
:1026200000AF78607868FFF7E5FF786802F042F85D
:102630007B6818460837BD4680BD00BF80B483B0B4
:1026400000AF78607B685B6818460C37BD465DF864
:10265000047B704780B596B000AF78607B685A689D
:102660007B68DB6807F10801084604490BF0C2F9F2
:1026700007F1080318465837BD4680BD6C1901089C
:1026800080B582B000AF786039607B68524A1A60CA
:102690007B686B2283F85C207B68A82283F85D202E
:1026A0007B684E4A5E3312881A807B684C4A6033DE
:1026B00012881A807B684B4A623312881A807B68C2
:1026C0001D2283F864207B68A82283F865207B683C
:1026D000882283F866207B68434A673312881A8011
:1026E0007B68212283F869207B68002283F86A20B6
:1026F0007B683E4A6B3312881A807B68252283F8F8
:102700006D207B68002283F86E207B68262283F888
:102710006F207B68002283F870207B683A689A6596
:102720007B684FF000029A617B689A697B685A6106
:102730007B685A697B681A617B681A697B68DA6012
:102740007B68DA687B689A607B689A687B685A6005
:102750007B684FF000021A637B681A6B7B68DA6251
:102760007B68DA6A7B689A627B689A6A7B685A62DD
:102770007B685A6A7B681A627B681A6A7B68DA61CE
:102780007B684FF000025A657B685A6D7B681A655A
:102790007B681A6D7B68DA637B68DA6B7B68DA6466
:1027A0007B68DA6C7B689A647B689A6C7B689A6356
:1027B0007B689A6B7B685A647B685A6C7B681A6486
:1027C0007B681A6C7B685A63786800F035F87B6820
:1027D00018460837BD4680BD38240108781901081D
:1027E0007C19010880190108841901088819010859
:1027F00080B582B000AF78607B68064A1A6000231B
:10280000002B02D0786801F055FF7B681846083726
:10281000BD4680BD3824010880B582B000AF786025
:102820007868FFF7E5FF786801F044FF7B68184699
:102830000837BD4680BD00BF80B582B000AF78606C
:10284000584801210122012303F042FB564801218F
:102850000122012303F03CFB544801210122012302
:1028600003F036FB5248534903F0C0FE7B6893F8EF
:102870005C207B685E334E4811461A46022304F002
:1028800005F803469BB21BB278681946022200F095
:1028900093F87B6893F85C207B686033444811466A
:1028A0001A46022303F0F2FF03469BB21BB278687C
:1028B0001946022200F080F87B6893F85C207B6860
:1028C00062333B4811461A46022303F0DFFF0346FA
:1028D0009BB21BB278681946022200F06DF87B6843
:1028E00093F864207B686733314811461A46022307
:1028F00003F0CCFF03469BB21BB278681946022254
:1029000000F05AF87B6893F864207B6869332848A4
:1029100011461A46022303F0B9FF03469BB21BB2CD
:1029200078681946022200F047F87B6893F8642023
:102930007B686B331E4811461A46022303F0A6FF3C
:1029400003469BB21BB278681946022200F034F8A5
:102950007B6893F864207B686D33154811461A46EE
:10296000022303F093FF03469BB21BB2786819461B
:10297000022200F021F87B6893F864207B686F33B3
:102980000B4811461A46022303F080FF03469BB210
:102990001BB278681946022200F00EF80837BD46CF
:1029A00080BD00BF140D0020300D0020A00D0020C0
:1029B0004C0D0020801A060080B582B000AF786010
:1029C00013460A467A807B7097F901309BB2B7F9BB
:1029D00002201BB29A420BD097F90120B7F90230BE
:1029E000054811461A4601F0CBFB786800F008F85C
:1029F0000837BD4680BD00BF8C19010800000000EB
:102A000080B582B000AF78601D4803F07BFE01F016
:102A100091FF19A3D3E90023121843EB01031046D9
:102A2000194600220AF08CF91548164903F0DEFD1C
:102A30001548002103F052FB144801F0A1FB01F0FE
:102A400079FF0DA3D3E90023121843EB01031046CD
:102A5000194600220AF074F90B48012103F03EFBED
:102A6000094801210122012303F032FA7868FFF7B7
:102A7000E3FE0837BD4680BD404B4C00000000001F
:102A80004C0D0020801A0600A00D0020BC19010882
:102A9000B0B586B002AF78607B6893F864207B683D
:102AA000653307F108010091062101914A4811465A
:102AB0001A46012303F01EFF03469BB21BB278683F
:102AC00019460622FFF778FF7B7A1B029AB23B7AFF
:102AD00013439BB21BB21846FDF7ACFC02460B46F3
:102AE000104619463AA3D3E90023FDF709FD024633
:102AF0000B4614461D467B681B691846FDF7ACFC67
:102B000002460B4620462946FDF746FB02460B4689
:102B100010461946FDF7D6FF02467B685A60FB7ADD
:102B20001B029AB2BB7A13439BB21BB21846FDF745
:102B300081FC02460B461046194625A3D3E9002323
:102B4000FDF7DEFC02460B4614461D467B685B69BA
:102B50001846FDF781FC02460B4620462946FDF744
:102B60001BFB02460B4610461946FDF7ABFF02461B
:102B70007B689A607B7B1B029AB23B7B13439BB2C0
:102B80001BB21846FDF756FC02460B461046194686
:102B90000FA3D3E90023FDF7B3FC02460B4614460E
:102BA0001D467B689B691846FDF756FC02460B469E
:102BB00020462946FDF7F0FA02460B461046194614
:102BC000FDF780FF02467B68DA601037BD46B0BD76
:102BD00008AC1C5A643BAF3F4C0D0020AFF30080A3
:102BE00080B483B000AF78607B68064A1A617B6866
:102BF000054A5A617B68054A9A610C37BD465DF803
:102C0000047B70470000CEC2000010410000C0C02D
:102C10002DE9B04386B004AF7860224801F0B0FAE5
:102C20007B681A1D7B681033786811461A46582352
:102C300000F03EF87B6803F108027B681433786883
:102C400011461A46592300F033F87B6803F10C0251
:102C50007B681833786811461A465A2300F028F822
:102C60007B681B691846FDF7F7FB04460D467B6839
:102C70005B691846FDF7F0FB804689467B689B69D7
:102C80001846FDF7E9FB02460B46CDE90089CDE980
:102C90000223054822462B4601F072FA0837BD464A
:102CA000BDE8B083CC190108F41901080000000048
:102CB0002DE9B0438AB004AFF860B9607A60FB7068
:102CC0007B684FF000021A600023FB8297F9033003
:102CD0005748194601F054FAF868FFF7D9FEFB6827
:102CE0005B681846FDF7B8FB04460D46FB689B6819
:102CF0001846FDF7B1FB80468946FB68DB6818463D
:102D0000FDF7AAFB02460B46CDE90089CDE9022377
:102D1000484822462B4601F033FA01F00BFE42A34D
:102D2000D3E90023121843EB010310461946002291
:102D30000AF006F8BB6893ED007ADFED3F7AB4EE57
:102D4000E77AF1EE10FA03DDFB8A01339BB200E073
:102D50000023FB82FB8A082B09D900BF7B684FF058
:102D600000021A600023BB820023FB822EE0ADE745
:102D7000F868FFF78DFEB7F9143007EE903AB8EE19
:102D8000E77ABB68D3ED006ADFED2C7A76EEE77A5E
:102D900077EE277AFDEEE77A17EE903ABB82BB68B2
:102DA0001B681846FDF758FB02460B46244801F005
:102DB000E7F901F0BFFD234A4FF00003121843EB7F
:102DC000010310461946002209F0BAFFFB8A5A1C7B
:102DD000FA82312B8CBF00230123DBB2002BC7D139
:102DE000B7F91430184A82FB03121211DB17D31AF9
:102DF0009BB21BB207EE103AF8EEC77A7B68C3EDC0
:102E0000007A97F903407B681B681846FDF724FB9E
:102E100002460B460D48214601F0B2F91837BD466F
:102E2000BDE8B083AFF300800084D7170000000036
:102E3000401A0108801A01080080544400007A44B6
:102E4000981A0108809698001F85EB51A41A010872
:102E5000B0B586B002AF78607B6893F85C207B6881
:102E60005D3307F108010091062101914A4811469E
:102E70001A46012303F03EFD03469BB21BB278685D
:102E800019460622FFF798FD7B7A1B029AB23B7A1D
:102E900013439BB21BB21846FDF7CCFA02460B4611
:102EA000104619463AA3D3E90023FDF729FB024651
:102EB0000B4614461D467B689B6A1846FDF7CCFA04
:102EC00002460B4620462946FDF766F902460B46A8
:102ED00010461946FDF7F6FD02467B68DA61FB7A7B
:102EE0001B029AB2BB7A13439BB21BB21846FDF782
:102EF000A1FA02460B461046194625A3D3E9002342
:102F0000FDF7FEFA02460B4614461D467B68DB6A57
:102F10001846FDF7A1FA02460B4620462946FDF762
:102F20003BF902460B4610461946FDF7CBFD02461B
:102F30007B681A627B7B1B029AB23B7B13439BB27A
:102F40001BB21846FDF776FA02460B4610461946A4
:102F50000FA3D3E90023FDF7D3FA02460B4614462C
:102F60001D467B681B6B1846FDF776FA02460B463A
:102F700020462946FDF710F902460B461046194631
:102F8000FDF7A0FD02467B685A621037BD46B0BD12
:102F9000EC51B81E85EB813F4C0D0020AFF3008053
:102FA0002DE9B0438CB004AF78605B4801F0E8F8DD
:102FB0000023FB610323FB6013E0FA68FB69D31A6B
:102FC0005648194601F0DCF801F0B4FC50A3D3E9EF
:102FD0000023121843EB010310461946002209F0A2
:102FE000AFFEFB695A1CFA61FA689342ACBF00233A
:102FF0000123DBB2002BE0D10023FB617B684FF0A3
:1030000000021A637B681A6B7B68DA627B68DA6A93
:103010007B689A624FF00003BB614FF000037B6155
:103020004FF000033B612AE07868FFF711FF7B68EF
:10303000D3ED077A97ED067A77EE277AC7ED067A11
:103040007B68D3ED087A97ED057A77EE277AC7ED9E
:10305000057A7B68D3ED097A97ED047A77EE277AC3
:10306000C7ED047A01F066FC2D4A4FF000031218F8
:1030700043EB010310461946002209F061FEFB698B
:103080005A1CFA6140F2F3129342CCBF0023012391
:10309000DBB2002BC8D197ED067ADFED227AC7EEBE
:1030A000277A7B68C3ED0A7A97ED057ADFED1D7A02
:1030B000C7EE277A7B68C3ED0B7A97ED047ADFEDD4
:1030C000197AC7EE277A7B68C3ED0C7A7B689B6A16
:1030D0001846FDF7C1F904460D467B68DB6A1846C1
:1030E000FDF7BAF9804689467B681B6B1846FDF7E9
:1030F000B3F902460B46CDE90089CDE902230A481F
:1031000022462B4601F03CF82037BD46BDE8B0838F
:1031100000CA9A3B00000000B81A0108E81A01082A
:10312000809698000000FA43F01A0108AFF300807F
:103130002DE9F0438FB004AF78600023FB844F4843
:1031400001F01EF87B6893F864207B68663307F112
:103150000C01009106210191494811461A460123AC
:1031600003F0C8FB03469BB21BB2786819460622DF
:10317000FFF722FC7B7B1B029AB23B7B1343FB8352
:10318000FB8BBB84BB8C3B83FB7B1B029AB2BB7B60
:103190001343BB83BB8B7B847B8CFB827B7C1B02BE
:1031A0009AB23B7C13437B837B8B3B843B8CBB82FF
:1031B0000DE17B6893F864207B68663307F10C01AE
:1031C0000091062101912E4811461A46012303F071
:1031D00091FB03469BB21BB2786819460622FFF7A3
:1031E000EBFB7B7B1B029AB23B7B13433B83FB7B5A
:1031F0001B029AB2BB7B1343FB827B7C1B029AB2FD
:103200003B7C1343BB82B7F91820B7F924309A42AC
:1032100001DD3B8B00E0BB8CBB84B7F91820B7F90C
:103220001E309A4201DA3B8B00E0FB8BFB83B7F93F
:103230001620B7F922309A4201DDFB8A00E07B8C30
:103240007B84B7F91620B7F91C309A4201DAFB8A61
:1032500000E0BB8BBB83B7F91420B7F920309A424A
:1032600001DDBB8A00E03B8C3B84B7F91420B7F941
:103270001A309A4206DABB8A05E000BF201B01081B
:103280004C0D00207B8B7B83FB8CA94AA2FB031295
:103290005209642101FB02F29B1A9BB2002B40F001
:1032A0008980B7F91E301846FDF7C4F802460B4670
:1032B000104619469CA3D3E90023FDF721F90246E5
:1032C0000B4610461946FDF7B5FB0646B7F9243004
:1032D0001846FDF7AFF802460B461046194692A372
:1032E000D3E90023FDF70CF902460B4610461946B8
:1032F000FDF7A0FB0546B7F91C301846FDF79AF814
:1033000002460B461046194687A3D3E90023FDF772
:10331000F7F802460B4610461946FDF78BFB0446AC
:10332000B7F922301846FDF785F802460B461046DD
:1033300019467DA3D3E90023FDF7E2F802460B46C8
:1033400010461946FDF776FB8146B7F91A30184644
:10335000FDF770F802460B461046194672A3D3E9F2
:103360000023FDF7CDF802460B4610461946FDF73F
:1033700061FB8046B7F920301846FDF75BF802463E
:103380000B461046194668A3D3E90023FDF7B8F8A9
:1033900002460B4610461946FDF74CFB0346CDF896
:1033A0000090CDF804800293624831462A462346B5
:1033B00000F0E6FE01F0BEFA5F4A4FF0000312187B
:1033C00043EB010310461946002209F0B9FCFB8CBF
:1033D0005A1CFA8440F2DB5293428CBF0023012333
:1033E000DBB2002B7FF4E5AEB7F91E301846FDF7CF
:1033F00021F802460B46104619464BA3D3E9002399
:10340000FDF77EF802460B4610461946FDF75AFBBB
:1034100002467B681A64B7F91C301846FDF70AF8B3
:1034200002460B46104619463FA3D3E90023FDF799
:1034300067F802460B4610461946FDF743FB024665
:103440007B689A64B7F91A301846FCF7F3FF024616
:103450000B461046194634A3D3E90023FDF750F874
:1034600002460B4610461946FDF72CFB02467B68C8
:103470001A65B7F92420B7F91E30D31A1846FCF79D
:10348000D9FF02460B461046194627A3D3E900236D
:10349000FDF736F802460B4610461946FDF712FBBB
:1034A00002467B685A64B7F92220B7F91C30D31A58
:1034B0001846FCF7BFFF02460B46104619461AA3F2
:1034C000D3E90023FDF71CF802460B4610461946C7
:1034D000FDF7F8FA02467B68DA64B7F92020B7F9FD
:1034E0001A30D31A1846FCF7A5FF02460B461046C1
:1034F00019460DA3D3E90023FDF702F802460B4657
:1035000010461946FDF7DEFA02467B685A657B686D
:103510001B6C1846FCF7A0FF04460D467B689B6CAD
:103520001846FCF799FF09E07B14AE47E17AB43FF7
:103530001F85EB51641B01088096980080468946E0
:103540007B681B6D1846FCF787FF02460B46CDE9EA
:103550000089CDE90223134822462B4600F010FED5
:103560007B685B6C1846FCF777FF04460D467B686A
:10357000DB6C1846FCF770FF804689467B685B6D04
:103580001846FCF769FF02460B46CDE90089CDE9F4
:103590000223054822462B4600F0F2FD2C37BD469B
:1035A000BDE8F083A81B0108C41B0108AFF300802D
:1035B00080B582B000AF786039607B68012B10D194
:1035C0003A684FF6FF739A420BD10748202102F068
:1035D0004BFC0648122102F047FC0548022102F08C
:1035E0009FFF0837BD4680BD140D0020300D002020
:1035F0004C0D002080B500AF01204FF6FF71FFF7A2
:10360000D7FF80BD80B582B000AF786039607B683D
:10361000012B08D13A684FF6FF739A4203D1034851
:10362000012102F07DFF0837BD4680BD680D0020F6
:1036300080B500AF01204FF6FF71FFF7E3FF80BDBB
:1036400080B582B000AF786039607B680A4A1A6042
:103650007B683A689A627868084900F067F87B6886
:10366000002283F83420786800F02EF87B68184632
:103670000837BD4680BD00BF4824010800008242D3
:1036800080B582B000AF78607B68064A1A6000237C
:10369000002B02D0786801F00DF87B6818460837D7
:1036A000BD4680BD4824010880B582B000AF786077
:1036B0007868FFF7E5FF786800F0FCFF7B68184644
:1036C0000837BD4680BD00BF80B483B000AF7860CE
:1036D0007B684FF000025A627B685A6A7B681A6204
:1036E0007B681A6A7B68DA617B68DA697B689A6151
:1036F0007B689A697B685A617B685A697B681A6142
:103700007B681A697B68DA607B68DA687B685A6074
:103710007B685A687B689A607B68012283F8342052
:103720000C37BD465DF8047B704700BF80B483B0A2
:1037300000AF786039607B683A68DA627B68D3ED05
:103740000B7AB7EE007A77EE677A7B68C3ED0C7A76
:103750000C37BD465DF8047B704700BF80B582B072
:1037600000AF786039607B68012B08D13A684FF66A
:10377000FF739A4203D10348012101F087FE083705
:10378000BD4680BD840D002080B500AF01204FF6FE
:10379000FF71FFF7E3FF80BD80B582B000AF7860B6
:1037A00039607B68012B34D13A684FF6FF739A4237
:1037B0002FD11948372102F057FB1848022104F095
:1037C000ABFD17480C2103F037FE1648242102F008
:1037D0004BFB1548112102F047FB14480D2103F063
:1037E0002BFE1348102102F03FFB1248472102F044
:1037F0003BFB11480E2103F01FFE1048482102F048
:1038000033FB0F484A2102F02FFB0E48422102F001
:103810002BFB0837BD4680BDA00D0020BC0D00204D
:10382000D80D0020F40D0020100E00202C0E0020DA
:10383000480E0020640E0020800E00209C0E002008
:10384000B80E0020D40E002080B500AF01204FF646
:10385000FF71FFF7A1FF80BD80B483B000AF786037
:103860007B68164A1A607B68154A1A617B68154A9C
:103870005A607B68124A9A607B68114ADA607B68FA
:103880004FF07C525A617B680F4A9A627B684FF016
:1038900000021A627B684FF00002DA617B684FF029
:1038A00000029A617B684FF000025A627B681846FA
:1038B0000C37BD465DF8047B704700BF58240108F3
:1038C0000AD7233C295C8F3D0000DE4280B582B0E0
:1038D00000AF78607B68064A1A600023002B02D094
:1038E000786800F0E7FE7B6818460837BD4680BD63
:1038F0005824010880B582B000AF78607868FFF77F
:10390000E5FF786800F0D6FE7B6818460837BD46AC
:1039100080BD00BF80B487B000AFF860B9607A6046
:1039200097ED027AD7ED017A77EE677AFB68C3EDFF
:10393000067AFB68D3ED067AF5EEC07AF1EE10FA5E
:1039400003DDFB68D3ED067A04E0FB68D3ED067A6D
:10395000F1EE677AFB6893ED057AF4EEC77AF1EE43
:1039600010FA0FDDFB6893ED077AFB68D3ED066A6A
:10397000FB68D3ED047A66EEA77A77EE277AFB68C8
:10398000C3ED077AFB6893ED017AFB68D3ED067A05
:1039900027EE277AFB68D3ED026AFB68D3ED077A3E
:1039A00066EEA77A77EE277AC7ED057A97ED057A66
:1039B000F1EE0C7AB4EEE77AF1EE10FA02DD104B7C
:1039C0007B610AE097ED057AF1EE0C7AB4EEE77AC6
:1039D000F1EE10FA01D50B4B7B61FB6893ED0A7A8F
:1039E000D7ED057A67EE277AFDEEE77A17EE903A83
:1039F0003B613B6918461C37BD465DF8047B704748
:103A00000000E0400000E0C080B485B000AFF86086
:103A1000B9607A603B60FB680D4A1A60FB68BA685F
:103A20005A60FB687A689A60FB683A68DA60FB68FB
:103A3000BA691A61FB68FA695A61FB6801221A7651
:103A4000FB6818461437BD465DF8047B704700BF1D
:103A50006824010880B582B000AF78607B68064AB0
:103A60001A600023002B02D0786800F023FE7B68E8
:103A700018460837BD4680BD6824010880B582B06D
:103A800000AF78607868FFF7E5FF786800F012FE15
:103A90007B6818460837BD4680BD00BF80B582B040
:103AA00000AF78607B68D9687B685A687B689B68E0
:103AB000084611461A4603F0E9FC0F48012101228D
:103AC000012302F005FA7B681B69184601210122D7
:103AD000012302F0FDF97B685B6918460121012290
:103AE000002302F0F5F97B68DB681846002104F03A
:103AF00033F90837BD4680BDD40E002090B583B0A1
:103B000000AF786039603B68002B03DA7B681B7E6E
:103B1000002B09D13B68002B27DD7B681B7E83F0DF
:103B20000103DBB2002B20D07B681B7E83F00103F6
:103B3000DAB27B681A767B681C697B681B69184659
:103B400002F018FB0346DB432046194602F0C6FA92
:103B50007B685C697B685B69184602F00BFB034677
:103B6000DB432046194602F0B9FA3B68002BB8BF88
:103B70005B423B607B689A683B689A4202DA7B68EA
:103B80009B6800E03B683B607B68DA683B681046F6
:103B9000194604F0E1F80C37BD4690BD80B582B0FF
:103BA00000AF78607B680A4A1A600A4800F02EFB72
:103BB0007B680433184600F0CFFC0023002B02D0B2
:103BC000786800F077FD7B6818460837BD4680BDF1
:103BD000B8240108E41B010880B582B000AF78600A
:103BE0007868FFF7DBFF786800F064FD7B681846B3
:103BF0000837BD4680BD00BF80B582B000AF786099
:103C00007B680A4A1A600A4800F000FB7B680433AC
:103C1000184600F0A1FC0023002B02D0786800F0C9
:103C200049FD7B6818460837BD4680BD4025010820
:103C3000F41B010880B582B000AF78607868FFF7A8
:103C4000DBFF786800F036FD7B6818460837BD4614
:103C500080BD00BF80B582B000AF78607B68064A47
:103C60001A600023002B02D0786800F023FD7B68E7
:103C700018460837BD4680BDA024010880B582B033
:103C800000AF78607868FFF7E5FF786800F012FD14
:103C90007B6818460837BD4680BD00BF80B584B03C
:103CA00000AFF860B9607A603B60044800F0AEFA9B
:103CB000002318461037BD4680BD00BF081C010810
:103CC00080B584B000AFF860B9607A60FB681846D0
:103CD000B96801227B6800F099FEFB68034A1A600C
:103CE000FB6818461037BD4680BD00BF9024010810
:103CF00080B483B000AF78607B68044A1A607B6848
:103D000018460C37BD465DF8047B7047A0240108B7
:103D100080B582B000AF78607B681846FFF7E8FF97
:103D20007B68114A1A607B681A1D7B689A607B6801
:103D30005A1D7B68DA607B689A1D7B681A617B6814
:103D400000221A7579684FF000024FF00003C1E9B4
:103D500008237B68D3E908237968C1E906237B68D7
:103D600018460837BD4680BD7824010880B582B06A
:103D700000AF78607B68084A1A607B681846FFF7D6
:103D800069FF0023002B02D0786800F093FC7B6869
:103D900018460837BD4680BD7824010880B582B03A
:103DA00000AF78607868FFF7E1FF786800F082FC88
:103DB0007B6818460837BD4680BD00BF80B584B01B
:103DC00002AF786039607B68012B33D13A684FF6D7
:103DD000FF739A422ED11948194940F2D17200F06E
:103DE000E5F816481749184A09F0FEFD17483C2126
:103DF00002F03AF816484FF0FF31164AFFF760FF1D
:103E000013481549104A09F0EFFD1448FFF780FFE9
:103E1000124813490C4A09F0E7FD002300931148AA
:103E20000B490E4A104B00F04FFC0E480F49064A52
:103E300009F0DAFD0837BD4680BD00BFF00E002056
:103E4000901C0108ED3F0008DC1000200C0F002042
:103E5000280F00209C1C0108A53E0008500F0020E0
:103E60006D3D0008780F0020A81C0108F93B0008F0
:103E700080B584B000AFF860B9607A603B607B6861
:103E8000012B04D9064800F0C1F9002304E0F868CA
:103E9000396800F035F8012318461037BD4680BD5B
:103EA000BC1C010880B582B000AF78607B680A4A0C
:103EB0001A600A4800F0AAF97B681846FFF76EFE00
:103EC0000023002B02D0786800F0F4FB7B681846D2
:103ED0000837BD4680BD00BF90240108D01C0108F2
:103EE00080B582B000AF78607868FFF7DBFF786854
:103EF00000F0E0FB7B6818460837BD4680BD00BF78
:103F000080B485B000AF786039607B68DB68FB60A7
:103F10007B689A687B68DA607B68FA689A607B687D
:103F20001B7DDBB2002B09D07B689B68FB607B6844
:103F30001A697B689A607B68FA681A617B68D3E9C2
:103F40000623013243F100037968C1E906231437DF
:103F5000BD465DF8047B704780B500AF01204FF689
:103F6000FF71FFF72BFF80BD80B483B000AF786096
:103F70007B681B6818460C37BD465DF8047B7047AC
:103F800080B483B000AF78607B685B6818460C37FC
:103F9000BD465DF8047B704780B483B000AF7860A5
:103FA0000C37BD465DF8047B704700BF80B584B018
:103FB00000AFF860B9607A60FB68043318460949BD
:103FC000BA68002300F080FAFB68074A1A60FB68B1
:103FD0007A685A61FB6801221A76FB681846103726
:103FE000BD4680BDA80F0020C824010880B582B05E
:103FF00000AF78607B680A4A1A600A4800F006F948
:104000007B680433184600F0A7FA0023002B02D087
:10401000786800F04FFB7B6818460837BD4680BDC6
:10402000C8240108E01C010880B582B000AF7860A8
:104030007868FFF7DBFF786800F03CFB7B68184688
:104040000837BD4680BD00BF80B483B000AF786044
:104050007B6801221A760C37BD465DF8047B7047F9
:1040600080B483B000AF78607B6800221A760C378A
:10407000BD465DF8047B704780B485B000AFF86042
:10408000B9607A603B604FF0FF3318461437BD4685
:104090005DF8047B704700BF90B583B000AF154B4F
:1040A0001B68002B03D0134B1B68043B00E000236C
:1040B0007B6018E07B685C697B6804331846FFF717
:1040C0005FFF03460C4821461A4600F059F87B680A
:1040D00004331846FFF748FF0346002B01D0043B8A
:1040E00000E000237B607B68002BE3D10C37BD46EA
:1040F00090BD00BFA80F0020F41C010880B582B05D
:1041000000AF78607B68064A1A600023002B02D05B
:10411000786800F0CFFA7B6818460837BD4680BD46
:10412000E824010880B582B000AF78607868FFF7B6
:10413000E5FF786800F0BEFA7B6818460837BD4690
:1041400080BD00BF80B582B000AF78600B46FB70C9
:1041500097F90330184608F053F90837BD4680BD7B
:1041600080B483B000AF78607B68044A1A607B68D3
:1041700018460C37BD465DF8047B7047E8240108FB
:104180000FB480B582B000AF1C4B1B68002B2FD042
:104190003B461846FFF7E4FF07F114037B60184B1A
:1041A0001B68002B05D0164B1B681648194601F0FA
:1041B0006BF808F07BFB034683F00103DBB2002BB6
:1041C00005D03B461846396900F0ECFD0AE00E4880
:1041D00008F0BAFB3B461846396900F0E3FD0A488F
:1041E00008F010FC08F04EF93B461846FFF786FF32
:1041F0000837BD46BDE8804004B070470400002089
:10420000AC0F0020101D0108B00F002080B582B057
:1042100000AF7860074B7A681A6007487968FFF743
:10422000AFFF064B1B685A1C044B1A600837BD468B
:1042300080BD00BF00000020241D0108AC0F00203D
:1042400080B582B000AF786039607B68012B07D100
:104250003A684FF6FF739A4202D1034808F05CFBBC
:104260000837BD4680BD00BFB00F002080B500AF4D
:1042700001204FF6FF71FFF7E3FF80BD0FB480B45C
:1042800000AF00231846BD465DF8047B04B07047BC
:1042900080B483B000AF78600C37BD465DF8047B16
:1042A000704700BF0FB480B400AF00231846BD466E
:1042B0005DF8047B04B070470FB480B400AF0023F6
:1042C0001846BD465DF8047B04B0704780B483B0E7
:1042D00000AF7860002318460C37BD465DF8047BBC
:1042E000704700BF80B483B000AF786000231846E9
:1042F0000C37BD465DF8047B704700BF0FB480B437
:1043000000AF00231846BD465DF8047B04B070473B
:104310000FB480B400AF00231846BD465DF8047B9F
:1043200004B070470FB480B400AF00231846BD46F8
:104330005DF8047B04B0704780B483B000AF786050
:104340007B680A4A1A607B6800221A617B68002237
:104350005A607B6800229A607B680022DA607B6882
:1043600018460C37BD465DF8047B704700250108F0
:1043700080B584B000AFF860C7E9002307F020FCE7
:10438000FB681B6810331B68F86898470346002BCE
:1043900002D007F01DFC0EE008F0AAFC0246FB6804
:1043A0009A60FB689968D7E90023C1E90A2307F0FE
:1043B0000FFC08F027FC1037BD4680BD80B584B0E7
:1043C00000AFF860C7E9002307F0FAFBFB681B6841
:1043D00018331B68F86898470346002B02D007F093
:1043E000F7FB0EE008F084FC0246FB68DA60FB682D
:1043F000D968D7E90023C1E90A2307F0E9FB08F0EF
:1044000001FC1037BD4680BD80B582B000AF78603A
:104410007B689B68002B04D07B689B68184608F07B
:1044200073FC7B6800229A607B681B69002B07D0B5
:104430007B681B691B681B687A681269104698477D
:104440000837BD4680BD00BF80B582B000AF786040
:104450007B685B68002B04D07B685B68184608F0BB
:1044600053FC7B6800225A607B681B69002B08D0D4
:104470007B681B691B6804331B687A6812691046E5
:1044800098470837BD4680BD80B582B000AF7860E0
:104490007B68DB68002B04D07B68DB68184608F07B
:1044A00033FC7B680022DA607B681B69002B08D034
:1044B0007B681B691B6808331B687A6812691046A1
:1044C00098470837BD4680BD80B584B000AFF8601E
:1044D000B9607A603B60FB683A68DA60FB687A68CA
:1044E0005A60084B1B68591C064A1160FA689360B1
:1044F000F868B96800F008F8FB6818461037BD4640
:1045000080BD00BFC00F002080B582B000AF7860D2
:1045100039603B681A687B681A603B687A681A6081
:104520000A4B1B68002B0CBF00230123DBB2002BBE
:1045300008D00748FFF76AFE7B685B6805481946A4
:10454000FFF71EFE0837BD4680BD00BF8822002051
:10455000501D0108841D010880B582B000AF78604D
:104560000348FFF753FE7B6818460837BD4680BDF9
:10457000A81D010880B485B000AF78600023FB60FF
:104580007B68002B01D100230BE005E0FB680133C1
:10459000FB607B6801337B607B681B78002BF5D167
:1045A000FB6818461437BD465DF8047B704700BFB2
:1045B00080B487B000AFF860B9607A60FB68002B08
:1045C00001D1FB6810E0FB687B6109E0BB68DAB2EF
:1045D0007B691A707B6901337B617B68013B7B607F
:1045E0007B68002BF2D1FB6818461C37BD465DF88E
:1045F000047B704780B487B000AFF860B9607A6020
:10460000FB687B61BB683B617B69002B02D03B6927
:10461000002B01D1002311E00CE03B691A787B6983
:104620001A707B68013B7B603B6901333B617B69AE
:1046300001337B617B68002BEFD1FB6818461C3788
:10464000BD465DF8047B704780B485B000AF7860EC
:1046500039607B68002B07D13B68002B01D1002318
:1046600001E04FF0FF331FE03B68002B01D1012335
:104670001AE07B685A1C7A601B78FB733B685A1CF3
:104680003A601B78BB73FA7BBB7B9A4202D24FF035
:10469000FF3309E0FA7BBB7B9A4201D9012303E097
:1046A000FB7B002BE5D1002318461437BD465DF88F
:1046B000047B704780B483B000AF78600C37BD4690
:1046C0005DF8047B704700BF80B584B000AFF86030
:1046D000B9607A603B60FB68043318461049114AA0
:1046E0000023FFF7F1FEFB680F4A1A60FB68BA6807
:1046F0005A61FB682033184608F00EF9FB683A7ED1
:104700001A77FB6801225A77FB683A689A60FB685F
:104710007A689A61FB6818461037BD4680BD00BFB5
:1047200050230020D01D01084025010880B485B029
:1047300000AFF860B9607A603B60034B18461437ED
:10474000BD465DF8047B704715CD5B0790B587B01B
:1047500002AFF860B9607A603B60FB685B7F83F012
:104760000103DBB2002B01D000233DE0FB682033C6
:10477000184608F0E9F8FB689B69002B0FD0FB682E
:104780009B691B6808331C68FB689A697B68396AF7
:1047900000911046B9681A463B68A04718E0FB68CC
:1047A0001B681C683B6A5B690093F868B9687A68A3
:1047B0003B68A04702460E4B9A420CBF00230123E0
:1047C000DBB2002B04D00B48FFF720FD01230BE0E8
:1047D000FB682033184608F015F9FB689B69002B2D
:1047E00001D0012300E0002318461437BD4690BDD8
:1047F00015CD5B07DC1D010890B58DB002AFF860E8
:10480000B9607A603B60FB689B69002B0FD0FB6846
:104810009B691B6808331C68FB689A693B6807F151
:10482000100100911046B9681A467B68A0472C37E2
:10483000BD4690BD80B485B000AFF860C7E90023E5
:10484000F968D7E90023C1E90E23F968D7E90623FF
:10485000C1E910231437BD465DF8047B704700BFE3
:10486000B0B586B002AF786006E04FF0FF306FF071
:104870000041002208F064FA7B68D3E9102352EA71
:104880000301F2D07B68D3E90E23104619460022BB
:1048900008F056FA00F04EF8C7E902017B68D3E948
:1048A0000E017B68D3E91023D7E90245CDE9004525
:1048B00000F04AF802460B467968C1E90E2310372A
:1048C000BD46B0BD80B584B000AF786008F010FA86
:1048D000F860F86808F0F2F9B860F868796808F0EC
:1048E000F9F9BB6818461037BD4680BD80B483B067
:1048F00000AF786079684FF000024FF00003C1E923
:10490000002379684FF000024FF00003C1E9022351
:1049100079684FF000024FF00003C1E904237B687F
:1049200011229A617B6818460C37BD465DF8047BFE
:10493000704700BF80B500AF07F082FC02460B460F
:104940001046194680BD00BF80B584B000AFC7E9EE
:104950000201C7E90023D7E90223D7E90601904203
:1049600071EB030C02DAD7E902232CE0D7E900232C
:1049700052EA030104D14FF0FF326FF0004322E00E
:10498000D7E90601D7E90223821A61EB0303104637
:104990001946D7E90023FCF7E5F802460B46013239
:1049A00043F10003396803FB01F0796802FB01F170
:1049B00001443868A0FB022319440B46D7E90201E1
:1049C000121843EB0103104619461037BD4680BD4F
:1049D00080B582B000AF786039607B68012B07D169
:1049E0003A684FF6FF739A4202D10348FFF77EFF01
:1049F0000837BD4680BD00BFC80F002080B500AF9E
:104A000001204FF6FF71FFF7E3FF80BD80B586B050
:104A100000AFF860B9607A603B60FB680433184609
:104A20002E493A680023FFF74FFDFB682C4A1A60B5
:104A3000FB6800225A61FB68BA68DA61FB687A6831
:104A40001A62FB6800229A61FB68DB69B3F1FF3FE1
:104A500011D1386808F042FC03461A46FB68DA6157
:104A6000FB68DB69B3F57A7F05DAFB68DB6903F580
:104A70007A72FB68DA61194B1B68002B03D0174B65
:104A80001B68043B00E000237B611EE07B69DA6960
:104A9000BB689A420DD17A69FB689A4209D01148E5
:104AA000FFF7B4FB7B699B680F48B9683A68FFF76A
:104AB00067FB7B6904331846FFF756FA0346002B61
:104AC00001D0043B00E000237B617B69002BDDD13A
:104AD000FB6818461837BD4680BD00BF6023002024
:104AE000B82401083C1E0108501E010880B582B0A0
:104AF00000AF78607B680A4A1A600A48FFF786FBB5
:104B00007B681846FFF74AF80023002B02D078682C
:104B1000FFF7D0FD7B6818460837BD4680BD00BF53
:104B200080250108C81E010880B582B000AF7860FA
:104B30007868FFF7DBFF7868FFF7BCFD7B681846F5
:104B40000837BD4680BD00BF80B584B000AFF860B7
:104B5000B9607A60FB681846B9680C227B68FFF779
:104B600055FFFB68034A1A60FB6818461037BD46BC
:104B700080BD00BF8025010880B584B000AFF8601B
:104B8000B9607A60FB681846B96840F22E527B68BB
:104B9000FFF73CFFFB68034A1A60FB6818461037B2
:104BA000BD4680BD7025010880B584B000AFF860B7
:104BB000B9607A60FB681846B96804227B68FFF721
:104BC00025FFFB68034A1A60FB6818461037BD468C
:104BD00080BD00BF6025010880B582B000AF78605D
:104BE00039607B68012B4FD13A684FF6FF739A42C8
:104BF0004AD1274827490A22FFF7D8F924482649ED
:104C0000264A08F0F1FE26480021264AFFF79CFFBD
:104C100023482549214A08F0E7FE24484FF0FF3198
:104C2000234AFFF7A9FF214822491C4A08F0DCFE6D
:104C300021484FF0FF31214AFFF7B6FF1E482049B7
:104C4000164A08F0D1FE1F484FF0FF311E4AFFF709
:104C5000ABFF1C481A49114A08F0C6FE1B484FF02A
:104C6000FF311B4AFFF7A0FF184815490B4A08F00F
:104C7000BBFE18484FF0FF31174AFFF765FF154894
:104C80000949064A08F0B0FE0837BD4680BD00BF9E
:104C9000E80F0020D81E0108ED3F0008DC100020BE
:104CA00004100020EC1E0108ED4A00082810002026
:104CB000FC1E0108394D00084C100020081F010897
:104CC000DD4C000870100020181F0108941000200F
:104CD000281F0108B81000203C1F010880B582B0D1
:104CE00000AF78607B680A4A1A600A48FFF78EFABC
:104CF0007B681846FEF752FF0023002B02D078682D
:104D0000FFF7D8FC7B6818460837BD4680BD00BF5A
:104D100060250108C81E010880B582B000AF786028
:104D20007868FFF7DBFF7868FFF7C4FC7B681846FC
:104D30000837BD4680BD00BF80B582B000AF786047
:104D40007B680A4A1A600A48FFF760FA7B681846CF
:104D5000FEF724FF0023002B02D07868FFF7AAFC9F
:104D60007B6818460837BD4680BD00BF7025010826
:104D7000C81E010880B582B000AF78607868FFF780
:104D8000DBFF7868FFF796FC7B6818460837BD465E
:104D900080BD00BF80B500AF01204FF6FF71FFF767
:104DA0001BFF80BD80B594B000AF7860396056E2DB
:104DB000002387F84E30002387F84D30002387F812
:104DC0004C30002387F84B3097F84F30252B0AD012
:104DD0007B681B6808331B6897F84F2052B27868CD
:104DE000114698473BE23B685A1C3A601B7887F8AB
:104DF0004F30002387F84330202387F842300323C5
:104E000087F8413097F84F30302B09D197F84F3061
:104E100087F842303B685A1C3A601B7887F84F305D
:104E200097F84F302F2B0ED997F84F30392B0AD8DF
:104E300097F84F30303B87F843303B685A1C3A6054
:104E40001B7887F84F3097F84F302E2B10D13B68E6
:104E50005A1C3A601B7887F84F3097F84F30303B38
:104E600087F841303B685A1C3A601B7887F84F300E
:104E700097F84F306C2B08D1012387F84D303B68F1
:104E80005A1C3A601B7887F84F3097F84F306C2BDC
:104E900008D1012387F84C303B685A1C3A601B78D4
:104EA00087F84F3097F84F30623B162B38D801A166
:104EB00051F823F0AD4F0008114F0008974F00083C
:104EC000214F0008914F0008214F0008214F000892
:104ED000214F0008214F0008214F0008214F0008F2
:104EE000214F0008214F00087B4F0008214F000888
:104EF000214F0008214F0008374F0008214F0008BC
:104F00009D4F0008214F0008214F0008A54F0008C1
:104F10007B685B68191D7A6851601B6887F84F30A1
:104F20007B681B6808331B6897F84F2052B278687B
:104F30001146984793E17B685B68191D7A68516058
:104F40001B687B6409E07B681B6808331B6897F863
:104F50004F2052B27868114698477B6C5A1C7A648D
:104F60001B7887F84F3097F84F30002B0CBF002389
:104F70000123DBB2002BE6D171E10823A7F848300A
:104F80007B681B6808331B6878683021984711E0FC
:104F9000012387F84B30012387F84E300A23A7F806
:104FA000483007E01023A7F8483003E00223A7F8B1
:104FB000483000BF4FF000024FF00003C7E90C2358
:104FC0004FF000024FF00003C7E90A2397F84B3077
:104FD000002B15D07B685B68073323F0070303F1D0
:104FE00008017A685160D3E90023C7E90A23D7E9A9
:104FF0000A01FBF7E9FD02460B46C7E90C232CE04A
:1050000097F84C30002B0DD07B685B68073323F09A
:10501000070303F108017A685160D3E90023C7E967
:105020000C231AE097F84D30002B0BD07B685B689F
:10503000191D7A6851601B681A464FEAE273C7E986
:105040000C230AE07B685B68191D7A6851601B6855
:105050001A464FEAE273C7E90C2397F84E30002B4B
:105060002DD0D7E90C23002A73F100010ADBD7E920
:105070000A014FF000024FF00003FBF7B3FC0346B8
:10508000002B1CD0D7E90C23524263EB4303C7E942
:105090000C23BB6ABB62FB6A83F00043FB627B6844
:1050A0001B6808331B6878682D21984797F84330B0
:1050B000002B04D097F84330013B87F8433097F832
:1050C0004C30002B04D0D7E90C23C7E90E2310E0A5
:1050D00097F84D30002B06D03B6B1A464FF000037B
:1050E000C7E90E2305E03B6B1A464FF00003C7E902
:1050F0000E2307F10C031A337B647B6C013B7B644A
:105100007B6C00221A70B7F848204FF00003D7E9F3
:105110000E01FBF743FDD3B23033DBB287F8273003
:1051200097F92730392B05DD97F827300733DBB2A5
:1051300087F827307B6C013B7B6497F827207B6CDA
:105140001A70B7F848204FF00003D7E90E01FBF7BB
:1051500025FD02460B46C7E90E2397F84330002B86
:1051600004D097F84330013B87F84330D7E90E234A
:1051700052EA0301C7D106E07B6C013B7B647B6C88
:1051800097F842201A7097F843305A1E87F8432048
:10519000002B0CBF00230123DBB2002BECD109E074
:1051A0007B681B6808331B6897F84F2052B27868F9
:1051B000114698477B6C5A1C7A641B7887F84F30ED
:1051C00097F84F30002B0CBF00230123DBB2002BDC
:1051D000E6D197F84B30002B41D07B681B68083331
:1051E0001B6878682E2198472DE0D7E90C01FBF762
:1051F00059F902460B46D7E90A01FAF7CDFF0246F4
:105200000B46C7E90A23D7E90A014FF000021D4BFC
:10521000FBF776F902460B46C7E90A23D7E90A01EC
:10522000FBF7D2FC02460B46C7E90C237B681B68E0
:1052300008331B6897F830203032D2B2D2B252B263
:1052400078681146984797F841305A1E87F84120F0
:10525000002B0CBF00230123DBB2002BC5D13B6820
:105260005A1C3A601B7887F84F3097F84F30002B64
:105270000CBF00230123DBB2002B7FF499AD503724
:10528000BD4680BD000024400FB480B582B000AFA1
:105290000C4B1B68002B0FD03B461846FEF760FFF7
:1052A00007F114037B603B4618463969FFF77AFD26
:1052B0003B461846FEF722FF0837BD46BDE8804052
:1052C00004B070470400002080B582B000AF0C4BE2
:1052D0007B6008E07B681B6898473B6801333B6054
:1052E0007B6804337B607A68064B9A42F2D13B6854
:1052F00001333B603B68013B3B600837BD4680BDE6
:10530000E42801082429010880B485B000AFF860C2
:10531000B9607A60002318461437BD465DF8047BF7
:10532000704700BF80B400AFFEE700BF002100F06F
:1053300004B8124B5B58435004311148114B4218CA
:105340009A42FFF4F6AF104A00F003B8002342F887
:10535000043B0E4B9A42FFF4F9AF0D4A00F003B83C
:10536000002342F8043B0B4B9A42FFF4F9AF07F0DD
:105370008FF8FFF7A9FF08F009F970472429010801
:1053800000000020CC080020D0080020ACC3002082
:10539000000000100000001006F0E8FFFFF7FCBF5F
:1053A00080B483B000AF786039603B6818460C3732
:1053B000BD465DF8047B704780B483B000AF786071
:1053C000002318460C37BD465DF8047B704700BFCC
:1053D00080B483B000AF7860012318460C37BD4617
:1053E0005DF8047B704700BF80B483B000AF786085
:1053F0007B6818460C37BD465DF8047B704700BFDC
:1054000080B582B000AF78600B46FB70FB78002B54
:1054100031D0FB78032B2ED87B680022DA77FA781C
:105420007B685A607B685B68022B0CD0032B12D020
:10543000012B00D017E07B68114A1A607B684FF49B
:1054400080729A600FE07B680E4A1A607B684FF4A6
:1054500000729A6007E07B680B4A1A607B684FF421
:1054600080629A6000BF7B680C3318464FF0FF31B2
:105470001322FFF79DF87B6818460837BD4680BDAC
:1054800000200140002101400022014090B583B07E
:1054900000AF78600B46FB707B681846FEF74CFF48
:1054A0007B68144A1A60FB78002B02D0FB78032B30
:1054B00004D97B689B6904225A6015E0FB78013BA4
:1054C0005A010D4B134420201946FFF769FF04468B
:1054D000002C06D0FB7820461946FFF791FF2346A3
:1054E00000E023467A6893617B6818460C37BD4616
:1054F00090BD00BF90250108E010002080B58CB061
:1055000000AF78617B699B695B68032B4ADC7B6930
:105510009B699B681846012105F070F97B699B69BE
:105520009B681846002105F069F907F12403184625
:1055300004F03CFD0023FB6231E07B699A69FB6A61
:10554000134408331B795BB2B3F1FF3F24D07B696E
:105550009A697B699969FB6A0B4408331B79DBB252
:105560003946084611461A4600F020F807F118039C
:105570003A4607CA83E80700BB8B7B62BA6907F12A
:1055800024031046194604F083FC7B699A69FB6A80
:1055900013440833FF221A71FB6A0133FB62FB6A72
:1055A0000F2BCAD93037BD4680BD00BF80B485B04F
:1055B00000AFF860B9601346FB71BB685B68012BF4
:1055C00004D0BB685B68022B40F0C980FB790F2BCD
:1055D00000F2C48001A252F823F000BF1D5600085B
:1055E0003156000845560008595600086D56000807
:1055F0008156000895560008A9560008BD560008B7
:10560000D1560008E5560008F95600080D57000865
:10561000215700083557000849570008FB68954A8C
:105620001A60FB6801229A80FB6801229A6096E06A
:10563000FB68904A1A60FB6802229A80FB6801228C
:105640009A608CE0FB688B4A1A60FB6804229A809F
:10565000FB6801229A6082E0FB68864A1A60FB6858
:1056600008229A80FB6801229A6078E0FB68814AF0
:105670001A60FB6810229A80FB6801229A606EE033
:10568000FB687C4A1A60FB6820229A80FB68012232
:105690009A6064E0FB68774A1A60FB6840229A804F
:1056A000FB6801229A605AE0FB68724A1A60FB6844
:1056B00080229A80FB6801229A6050E0FB686E4A63
:1056C0001A60FB6801229A80FB6802229A6046E019
:1056D000FB68694A1A60FB6802229A80FB68022212
:1056E0009A603CE0FB68654A1A60FB6801229A8078
:1056F000FB6804229A6032E0FB68604A1A60FB682B
:1057000002229A80FB6804229A6028E0FB685B4AC8
:105710001A60FB6804229A80FB6804229A601EE0EB
:10572000FB68564A1A60FB6808229A80FB680422CC
:105730009A6014E0FB68514A1A60FB6810229A8054
:10574000FB6804229A600AE0FB684C4A1A60FB6816
:1057500020229A80FB6804229A6000E000BFBB68A8
:105760005B68032B40F0D580FB790F2B00F2D080D3
:1057700001A252F823F000BFB9570008CD57000826
:10578000E1570008F5570008095800081D5800089F
:1057900031580008475800085D580008855800082F
:1057A00099580008AD580008C1580008D55800089D
:1057B000E9580008FD580008FB682E4A1A60FB688B
:1057C00001229A80FB6801229A60A2E0FB68294AC4
:1057D0001A60FB6802229A80FB6801229A6098E0B6
:1057E000FB68244A1A60FB6804229A80FB68012245
:1057F0009A608EE0FB681F4A1A60FB6808229A8054
:10580000FB6801229A6084E0FB681D4A1A60FB680D
:1058100040229A80FB6820229A607AE0FB68184A4E
:105820001A60FB6880229A80FB6820229A6070E0F0
:10583000FB68134A1A60FB684FF480729A80FB6819
:1058400020229A6065E0FB680D4A1A60FB684FF4FD
:1058500000729A80FB6820229A605AE0FB68084A2E
:105860001A60FB684FF480629A80FB6820229A607D
:105870004FE000BF00000240000402400008024068
:1058800000140240FB68264A1A60FB6808229A80CE
:10589000FB6820229A603CE0FB68224A1A60FB68A1
:1058A00001229A80FB6804229A6032E0FB681D4A5C
:1058B0001A60FB6802229A80FB6804229A6028E042
:1058C000FB68184A1A60FB6804229A80FB6804226D
:1058D0009A601EE0FB68134A1A60FB6808229A80EF
:1058E000FB6804229A6014E0FB680D4A1A60FB68AA
:1058F00010229A80FB6820229A600AE0FB68084A1E
:105900001A60FB6820229A80FB6820229A6000E0DF
:1059100000BF00BFF8681437BD465DF8047B7047D0
:105920000014024000080240B0B582B000AF7860B9
:1059300039607B68012B10D13A684FF6FF739A42A9
:105940000BD1074B02241D4604E02846FFF74CFD0F
:105950002035013CB4F1FF3FF7D10837BD46B0BD5B
:10596000E010002080B500AF01204FF6FF71FFF777
:10597000DBFF80BD80B483B000AF786001231846A0
:105980000C37BD465DF8047B704700BF80B483B020
:1059900000AF7860012318460C37BD465DF8047BE4
:1059A000704700BF80B483B000AF0346FB71084B63
:1059B00097F907205209F97901F01F01012000FA37
:1059C00001F143F822100C37BD465DF8047B7047A7
:1059D00000E100E080B483B000AF0346FB71094BE7
:1059E00097F907205209F97901F01F01012000FA07
:1059F00001F1603243F822100C37BD465DF8047B9C
:105A0000704700BF00E100E080B500AF124B1B788B
:105A100083F00103DBB2002B1CD00F4B01221A7064
:105A20004FF48040012104F08FFE0620FFF7BAFFFB
:105A30000720FFF7B7FF0820FFF7B4FF0920FFF7A3
:105A4000B1FF0A20FFF7AEFF1720FFF7ABFF2820BA
:105A5000FFF7A8FF80BD00BF8011002080B582B095
:105A600000AF786079807A703B707B687A881A80A2
:105A70007B687A781A727B683A785A72786800F094
:105A800023F8B7F90230184600F008F902467B689F
:105A90005A617B680C33184604F088FA7B685B898E
:105AA0001A467B68DA607B6802225A747B6800229F
:105AB0001A747B6800221A767B6800225A767B680B
:105AC00018460837BD4680BD80B483B000AF78600B
:105AD0007B681B7A1A467B681B889BB203F00F0316
