:020000040800F2
:10000000000002204D53000849C3000851C30008F6
:1000100075C300087DC3000885C300080000000008
:1000200000000000000000000000000079BC000893
:10003000B9530008000000008DBC0008C9BF0008CB
:10004000B9530008B9530008B9530008B953000860
:10005000B9530008B95300089D630008C163000844
:10006000E5630008096400082D640008B95300081E
:10007000CD860008B9530008F5850008B95300087B
:1000800085860008AD850008B9530008B9530008FB
:10009000B9530008B9530008B95300085164000867
:1000A000B9530008B953000879C10008B9530008D2
:1000B000B9530008B9530008B9530008B9530008F0
:1000C000B9530008B9530008B9530008B9530008E0
:1000D000B9530008D5840008ED84000805850008A0
:1000E000AD640008B9530008B9530008B9530008BB
:1000F000B9530008B9530008B9530008B9530008B0
:10010000B9530008B953000885BD0008B953000869
:100110001D85000835850008B9530008B95300084B
:10012000B9530008B9530008B9530008B95300087F
:10013000B9530008B9530008B9530008B95300086F
:10014000B9530008B9530008B9530008B95300085F
:100150003D860008B9530008658500084D850008F4
:10016000B9530008B9530008B9530008B95300083F
:10017000B9530008B9530008B9530008B95300082F
:0C018000B9530008B95300080000000843
:1001900081F0004102E000BF83F0004330B54FEA38
:1001A00041044FEA430594EA050F08BF90EA020FA5
:1001B0001FBF54EA000C55EA020C7FEA645C7FEA38
:1001C000655C00F0E2804FEA5454D4EB5555B8BF5B
:1001D0006D420CDD2C4480EA020281EA030382EACC
:1001E000000083EA010180EA020281EA0303362D5E
:1001F00088BF30BD11F0004F4FEA01314FF4801C31
:100200004CEA113102D0404261EB410113F0004F42
:100210004FEA03334CEA133302D0524263EB4303F9
:1002200094EA050F00F0A780A4F10104D5F1200E97
:100230000DDB02FA0EFC22FA05F2801841F10001F2
:1002400003FA0EF2801843FA05F359410EE0A5F1C6
:1002500020050EF1200E012A03FA0EFC28BF4CF0F7
:10026000020C43FA05F3C01851EBE37101F00045AD
:1002700007D54FF0000EDCF1000C7EEB00006EEBBA
:100280000101B1F5801F1BD3B1F5001F0CD3490844
:100290005FEA30004FEA3C0C04F101044FEA44529B
:1002A00012F5800F80F09A80BCF1004F08BF5FEA22
:1002B000500C50F1000041EB045141EA050130BD02
:1002C0005FEA4C0C404141EB010111F4801FA4F1A5
:1002D0000104E9D191F0000F04BF01460020B1FAFA
:1002E00081F308BF2033A3F10B03B3F120020CDA32
:1002F0000C3208DD02F1140CC2F10C0201FA0CF010
:1003000021FA02F10CE002F11402D8BFC2F1200C74
:1003100001FA02F120FA0CFCDCBF41EA0C0190402A
:10032000E41AA2BF01EB0451294330BD6FEA040473
:100330001F3C1CDA0C340EDC04F11404C4F120025E
:1003400020FA04F001FA02F340EA030021FA04F370
:1003500045EA030130BDC4F10C04C4F1200220FAC7
:1003600002F001FA04F340EA0300294630BD21FA05
:1003700004F0294630BD94F0000F83F4801306BFCB
:1003800081F480110134013D4EE77FEA645C18BFBF
:100390007FEA655C29D094EA050F08BF90EA020F56
:1003A00005D054EA000C04BF1946104630BD91EA4E
:1003B000030F1EBF0021002030BD5FEA545C05D151
:1003C0004000494128BF41F0004130BD14F5800490
:1003D0003CBF01F5801130BD01F0004545F0FE4104
:1003E00041F470014FF0000030BD7FEA645C1ABF39
:1003F000194610467FEA655C1CBF0B46024650EA70
:10040000013406BF52EA033591EA030F41F400219B
:1004100030BD00BF90F0000F04BF0021704730B521
:100420004FF4806404F132044FF000054FF00001F6
:1004300050E700BF90F0000F04BF0021704730B5B7
:100440004FF4806404F1320410F0004548BF40428C
:100450004FF000013EE700BF42004FEAE2014FEAE1
:1004600031014FEA02701FBF12F07F4393F07F4FBC
:1004700081F06051704792F0000F14BF93F07F4FEE
:10048000704730B54FF4607401F0004521F0004131
:1004900020E700BF50EA010208BF704730B54FF0B7
:1004A00000050AE050EA010208BF704730B511F0BC
:1004B000004502D5404261EB41014FF4806404F1F4
:1004C00032045FEA915C3FF4DCAE4FF003025FEA76
:1004D000DC0C18BF03325FEADC0C18BF033202EBFE
:1004E000DC02C2F1200300FA03FC20FA02F001FA58
:1004F00003FE40EA0E0021FA02F11444C1E600BFF7
:1005000070B54FF0FF0C4CF4E06C1CEA11541DBFA9
:100510001CEA135594EA0C0F95EA0C0F00F0DEF874
:100520002C4481EA030621EA4C5123EA4C5350EA59
:10053000013518BF52EA033541F4801143F48013AA
:1005400038D0A0FB02CE4FF00005E1FB02E506F03B
:100550000042E0FB03E54FF00006E1FB03569CF090
:10056000000F18BF4EF0010EA4F1FF04B6F5007F96
:1005700064F5407404D25FEA4E0E6D4146EB060608
:1005800042EAC62141EA55514FEAC52040EA5E5091
:100590004FEACE2EB4F1FD0C88BFBCF5E06F1ED83B
:1005A000BEF1004F08BF5FEA500E50F1000041EB72
:1005B000045170BD06F0004646EA010140EA02001F
:1005C00081EA0301B4EB5C04C2BFD4EB0C0541EA41
:1005D000045170BD41F480114FF0000E013C00F356
:1005E000AB8014F1360FDEBF002001F0004170BD7A
:1005F000C4F10004203C35DA0C341BDC04F1140493
:10060000C4F1200500FA05F320FA04F001FA05F21E
:1006100040EA020001F0004221F0004110EBD370EB
:1006200021FA04F642EB06015EEA430E08BF20EA17
:10063000D37070BDC4F10C04C4F1200500FA04F3BA
:1006400020FA05F001FA04F240EA020001F000414C
:1006500010EBD37041F100015EEA430E08BF20EABF
:10066000D37070BDC4F1200500FA05F24EEA020E07
:1006700020FA04F301FA05F243EA020321FA04F036
:1006800001F0004121FA04F220EA020000EBD370ED
:100690005EEA430E08BF20EAD37070BD94F0000FED
:1006A0000FD101F00046400041EB010111F4801F21
:1006B00008BF013CF7D041EA060195F0000F18BFD2
:1006C000704703F00046520043EB030313F4801F0E
:1006D00008BF013DF7D043EA0603704794EA0C0FC8
:1006E0000CEA135518BF95EA0C0F0CD050EA4106DE
:1006F00018BF52EA4306D1D181EA030101F000415B
:100700004FF0000070BD50EA410606BF1046194682
:1007100052EA430619D094EA0C0F02D150EA01368E
:1007200013D195EA0C0F05D152EA03361CBF1046CF
:1007300019460AD181EA030101F0004141F0FE416E
:1007400041F470014FF0000070BD41F0FE4141F4F2
:10075000780170BD70B54FF0FF0C4CF4E06C1CEAF2
:1007600011541DBF1CEA135594EA0C0F95EA0C0FA7
:1007700000F0A7F8A4EB050481EA030E52EA033562
:100780004FEA013100F088804FEA03334FF0805583
:1007900045EA131343EA12634FEA022245EA1115B0
:1007A00045EA10654FEA00260EF000419D4208BF61
:1007B000964244F1FD0404F5407402D25B084FEA0E
:1007C0003202B61A65EB03055B084FEA32024FF4BA
:1007D00080104FF4002CB6EB020E75EB030E22BF17
:1007E000B61A754640EA0C005B084FEA3202B6EBD7
:1007F000020E75EB030E22BFB61A754640EA5C0086
:100800005B084FEA3202B6EB020E75EB030E22BF15
:10081000B61A754640EA9C005B084FEA3202B6EB16
:10082000020E75EB030E22BFB61A754640EADC00D5
:1008300055EA060E18D04FEA051545EA16754FEA37
:1008400006164FEAC30343EA52734FEAC2025FEA55
:100850001C1CC0D111F4801F0BD141EA00014FF0E4
:1008600000004FF0004CB6E711F4801F04BF0143B5
:100870000020B4F1FD0C88BFBCF5E06F3FF6AFAED1
:10088000B5EB030C04BFB6EB020C5FEA500C50F161
:10089000000041EB045170BD0EF0004E4EEA1131E4
:1008A00014EB5C04C2BFD4EB0C0541EA045170BDEB
:1008B00041F480114FF0000E013C90E645EA060E2F
:1008C0008DE60CEA135594EA0C0F08BF95EA0C0F5D
:1008D0003FF43BAF94EA0C0F0AD150EA01347FF4A5
:1008E00034AF95EA0C0F7FF425AF104619462CE77C
:1008F00095EA0C0F06D152EA03353FF4FDAE1046DF
:10090000194622E750EA410618BF52EA43067FF42F
:10091000C5AE50EA41047FF40DAF52EA43057FF4BF
:10092000EBAE12E74FF0FF3C06E000BF4FF0010CCA
:1009300002E000BF4FF0010C4DF804CD4FEA410C2E
:100940007FEA6C5C4FEA430C18BF7FEA6C5C1BD0FB
:1009500001B050EA410C0CBF52EA430C91EA030F7C
:1009600002BF90EA020F0020704710F1000F91EAD9
:10097000030F58BF994208BF90422CBFD8176FEAA7
:10098000E37040F0010070474FEA410C7FEA6C5C75
:1009900002D150EA013C07D14FEA430C7FEA6C5C7C
:1009A000D6D152EA033CD3D05DF8040B704700BFA8
:1009B0008446104662468C461946634600E000BFF6
:1009C00001B5FFF7B7FF002848BF10F1000F01BDC8
:1009D0004DF808EDFFF7F4FF0CBF012000205DF893
:1009E00008FB00BF4DF808EDFFF7EAFF34BF012018
:1009F00000205DF808FB00BF4DF808EDFFF7E0FFB1
:100A000094BF012000205DF808FB00BF4DF808ED01
:100A1000FFF7CEFF94BF012000205DF808FB00BF68
:100A20004DF808EDFFF7C4FF34BF012000205DF84A
:100A300008FB00BF4FEA410212F5001215D211D592
:100A40006FF47873B3EB625212D94FEAC12343F0CB
:100A5000004343EA505311F0004F23FA02F018BF4D
:100A6000404270474FF00000704750EA013005D116
:100A700011F0004008BF6FF0004070474FF00000D9
:100A8000704700BF4A0011D212F5001211D20DD5E5
:100A90006FF47873B3EB62520ED44FEAC12343F084
:100AA000004343EA505323FA02F070474FF000002E
:100AB000704750EA013002D14FF0FF3070474FF0DD
:100AC000000070474FEA4102B2F1E04324BFB3F5A2
:100AD000001CDCF1FE5C0DD901F0004C4FEAC002B5
:100AE0004CEA5070B2F1004F40EB830008BF20F099
:100AF0000100704711F0804F21D113F13872BCBF53
:100B000001F00040704741F480114FEA5252C2F1A7
:100B10001802C2F1200C10FA0CF320FA02F018BFF0
:100B200040F001004FEAC1234FEAD32303FA0CFC43
:100B300040EA0C0023FA02F34FEA4303CCE77FEAD2
:100B4000625307D150EA01331EBF4FF0FE4040F41C
:100B50004000704701F0004040F0FE4040F40000CB
:100B6000704700BF73B96AB9002908BF0028BCBF2D
:100B700000204FF00041C4BF6FF000414FF0FF3044
:100B800000F08CB882B0EC462DE9005000F056F829
:100B9000DDF804E002B00CBC704700BF4BB942B9AD
:100BA000002908BF002802D04FF0FF31084600F0AE
:100BB00075B882B0EC462DE9005000F057F8DDF82A
:100BC00004E002B00CBC704738B500220023044694
:100BD0000D46FFF707FF28B920462946BDE83840F3
:100BE00000F00AB8204605F1004100F005F8404247
:100BF00061EB410138BD00BF70B500220D4B0446CA
:100C00000D46FFF77DFCFFF73DFF0646FFF702FCB0
:100C10000022094BFFF774FC02460B46204629468A
:100C2000FFF7BAFAFFF72EFF002242EA000420463F
:100C3000314670BD0000F03D0000F0412DE97043E9
:100C4000069E14461D468046894600F029F804FB9E
:100C500001F300FB0533A4FB00451D44B8EB04047D
:100C600069EB0505C6E90045BDE870832DE97043D1
:100C7000069E1446804689461D4600F05DF900FB3D
:100C800005F504FB0153A0FB04451D44B8EB040427
:100C900069EB0505C6E90045BDE87083704700BFF4
:100CA00000292DE9F00FC0F29F800024002BC0F234
:100CB0009680154606460F46002B3ED18A4257D9EC
:100CC000B2FA82F34BB1C3F1200201FA03F720FA22
:100CD00002F29D40174300FA03F6290CB7FBF1F22C
:100CE000330C01FB127CA8B243EA0C4700FB02F371
:100CF000BB4209D97F1902F1FF3C80F00181BB4260
:100D000040F2FE80023A2F44FF1AB7FBF1F3B6B26D
:100D100001FB137146EA014100FB03F0884208D948
:100D2000491903F1FF3780F0ED80884240F2EA80F4
:100D3000023B43EA0242002303E08B420AD900232C
:100D40001A461046194614B1404261EB4101BDE814
:100D5000F00F7047B3FA83F8B8F1000F40F08480C9
:100D60008B4202D3824200F2DE8000230122E8E7B8
:100D700012B90123B3FBF2F5B5FA85F2002A39D195
:100D80007F1B280C1FFA85FC0123B7FBF0F1320C06
:100D900000FB117742EA07470CFB01F2BA4207D980
:100DA0007F1901F1FF3802D2BA4200F2C1804146F8
:100DB000BF1AB7FBF0F2B6B200FB127046EA004071
:100DC0000CFB02FC844507D9401902F1FF3702D21F
:100DD000844500F2AB803A4642EA0142B1E7E4437F
:100DE000524263EB430364E7404261EB41014FF041
:100DF000FF345BE79540C2F1200327FA03F1280C8A
:100E000026FA03F39740B1FBF0F81F433B0C00FBBD
:100E100018111FFA85FC43EA01410CFB08F38B42D1
:100E200006FA02F608D9491908F1FF3279D28B4245
:100E300077D9A8F102082944C91AB1FBF0F3BFB26F
:100E400000FB131147EA01470CFB03F2BA4207D932
:100E50007F1903F1FF3160D2BA425ED9023B2F44C1
:100E6000BF1A43EA084390E7C8F1200203FA08FCDE
:100E700025FA02F343EA0C0C4FEA1C4921FA02F36B
:100E800001FA08F720FA02F2B3FBF9F1174309FB64
:100E900011333A0C1FFA8CFB42EA03430BFB01FAB5
:100EA0009A4505FA08F008D913EB0C0301F1FF325B
:100EB00035D29A4533D902396344CAEB0303B3FBF5
:100EC000F9F209FB1233BFB247EA03470BFB02F901
:100ED000B94508D917EB0C0702F1FF331BD2B9450E
:100EE00019D9023A674442EA0145A5FB0001C9EB62
:100EF00007078F424FF000030AD305D02A4620E7A8
:100F0000624601E73B4614E706FA08F68642F5D248
:100F10006A1E002315E71A46E5E70B46A0E71146CF
:100F2000CBE7904688E7434642460AE7023A53E752
:100F300002392F443CE700BF2DE9F00F1446054667
:100F40000E46002B43D18A4253D9B2FA82F757B1E9
:100F5000C7F1200620FA06F601FA07F302FA07F4B1
:100F60001E4300FA07F5210CB6FBF1F22B0C01FB36
:100F70001267A0B243EA074600FB02F3B34209D965
:100F8000361902F1FF3780F0F680B34240F2F38069
:100F9000023A2644F61AB6FBF1F3ADB201FB136137
:100FA00045EA014100FB03F0884208D9091903F121
:100FB000FF3680F0E280884240F2DF80023B43EA65
:100FC0000242002310461946BDE8F00F70478B42DD
:100FD0004AD8B3FA83F6002E4DD18B4202D3824217
:100FE00000F2D6800023012210461946BDE8F00F1A
:100FF000704712B90124B4FBF2F4B4FA84F2002A67
:101000007CD1091B260CA7B20123B1FBF6F02A0CF8
:1010100006FB101142EA014107FB00F28A4207D9A0
:10102000091900F1FF3C02D28A4200F2C3806046F7
:10103000891AB1FBF6F2ADB206FB121145EA014581
:1010400007FB02F7AF4208D92C1902F1FF3180F0FB
:101050009680A74240F29380023A42EA004210464C
:101060001946BDE8F00F704700231A46104619468E
:10107000BDE8F00F7047C6F1200522FA05F4B34031
:101080001C434FEA144821FA05F301FA06F720FA47
:1010900005F5B3FBF8FC2F4308FB1C333D0C1FFA8E
:1010A00084FA45EA03430AFB0CF9994502FA06FB68
:1010B00004D91B190CF1FF326DD39446C9EB03031D
:1010C000B3FBF8F508FB1533BFB247EA03470AFB49
:1010D00005F8B84504D93F1905F1FF3361D31D4622
:1010E00045EA0C4CACFB0B23C8EB07079F424FF0C3
:1010F000000549D345D062462B4663E79440C2F1D0
:10110000200321FA03FC260C20FA03F301FA02F56E
:10111000BCFBF6F843EA05010B0C06FB18CCA7B2A2
:1011200043EA0C4C07FB08F3634500FA02F509D9C2
:101130001CEB040C08F1FF323AD2634538D9A8F110
:101140000208A444C3EB0C0CBCFBF6F389B206FB0B
:1011500013CC41EA0C4107FB03F28A4207D9091973
:1011600003F1FF3022D28A4220D9023B2144891A5E
:1011700043EA084349E73A460CE733461FE70A4685
:101180006BE7B0409042B6D20CF1FF32002319E772
:101190003346324616E799458FD9ACF1020C234409
:1011A0008CE7B8459BD9023D274499E70346DEE723
:1011B0009046C7E7023821443AE700BF80B483B0C5
:1011C00000AF786039607B683A685A600C37BD467A
:1011D0005DF8047B704700BF80B483B000AF7860D7
:1011E00039607B683A689A600C37BD465DF8047BCD
:1011F000704700BF80B483B000AF786039607B680F
:101200003A685A600C37BD465DF8047B704700BFF2
:1012100080B483B000AF786039607B683A685A6107
:101220000C37BD465DF8047B704700BF80B584B0C5
:1012300000AFF860B9607A60FB6818462349642201
:101240004FF4FA630BF03CFCFB68214A1A60FB6820
:101250007A685A66FB68002283F85120FB680022F6
:1012600083F85520FB68002283F85A20FB6800228F
:1012700083F85220FB68002283F85420FB68002288
:1012800083F85820FB68002283F85720FB6800226F
:1012900083F85920FB680022DA65FB68012283F895
:1012A0005020FB68002283F85320FB68002283F85B
:1012B0005B20FB68002283F85620FB684FF0000299
:1012C0001A66FB6818461037BD4680BDD01201086B
:1012D000E823010880B582B000AF78607B68084AD7
:1012E0001A607B6818460BF059FC0023002B02D0D3
:1012F000786803F0EFF97B6818460837BD4680BD73
:10130000E823010880B582B000AF78607868FFF705
:10131000E1FF786803F0DEF97B6818460837BD46C0
:1013200080BD00BF80B483B000AF78600C37BD468D
:101330005DF8047B704700BF2DE9B043C4B004AF33
:1013400078607B6807F170021046194601F0A4F935
:1013500007F17003184601F04FFC0023C7F8FC307A
:101360000023C7F8F830964BC7F8F43007F138037C
:101370001846944902F070F907F10C03184602F080
:1013800077FA0023C7F8F0307B685B6E184602F0EE
:1013900091FB7B684FF000021A6607F17003184654
:1013A000002101F009FE7B6893F85330002B0BD02D
:1013B00007F170031846032101F0FEFD07F1380321
:1013C000184602F08DF925E17B6893F85230002B26
:1013D0000AD007F17003184601F0B6FE07F1380392
:1013E000184602F07DF915E17B6893F85430002B24
:1013F0000AD007F17003184601F016FC07F1380314
:10140000184602F06DF905E17B6893F85530002B22
:101410002ED07B68DB6D1846FFF70CF802460B46B2
:10142000104619464FF00002674BFFF793F902464A
:101430000B46664802F0B4FE7B68DB6D1846FEF78B
:10144000F9FF02460B46104619464FF000025E4B6C
:10145000FFF780F902460B4610461946FFF732FBAC
:10146000034607F138021046194602F06BF9D1E045
:101470007B6893F85A30002B24D07B68DB6D1846CC
:10148000FEF7D8FF02460B46104619464FF0000201
:101490004F4BFFF75FF902460B4610461946FFF720
:1014A00011FB034607F10C0210461946FFF7B0FE88
:1014B0003B6A1846FEF7D0FF02460B46454802F04D
:1014C0006FFEA7E07B6893F85930002B24D07B682F
:1014D000DB6D1846FEF7AEFF02460B461046194676
:1014E0004FF000023A4BFFF735F902460B46104623
:1014F0001946FFF7E7FA034607F10C0210461946B2
:10150000FFF778FE7B691846FEF7A6FF02460B46FA
:10151000314802F045FE7DE07B6893F85830002B9F
:1015200024D07B68DB6D1846FEF784FF02460B462D
:10153000104619464FF00002254BFFF70BF9024603
:101540000B4610461946FFF7BDFA034607F10C0299
:1015500010461946FFF740FE7B691846FEF77CFFF0
:1015600002460B461D4802F01BFE53E07B6893F8D1
:101570005730002B36D07B68DB6D1846FEF75AFFDC
:1015800002460B46104619464FF00002104BFFF77B
:10159000E1F802460B4610461946FFF793FA034658
:1015A00007F10C0210461946FFF708FE3B69184682
:1015B000FEF752FF02460B46094802F0F1FD29E012
:1015C000000020410AD7233C00005940E0120108E6
:1015D00000408F40F81201081C1301083C13010859
:1015E0005C1301087B6893F85630002B12D07B689F
:1015F000DB6D07EE103AF8EEC77A7B68C3ED187A18
:101600007B681B6E1846FEF727FF02460B467448A0
:1016100002F0C6FD7B68002283F85A207B6893F8AD
:101620005A207B6883F858207B6893F858207B68A1
:1016300083F859207B6893F859207B6883F85720FA
:101640007B6893F857207B6883F856207B6893F873
:1016500056207B6883F855207B6893F855207B687B
:1016600083F854207B6893F854207B6883F85320D8
:101670007B6893F853207B6883F852207B6893F84B
:1016800052207B6883F8512007F17003184601F05F
:101690000BFA07F17003184601F0E6FB7B681A6E3F
:1016A000D7F8943007F10C01084611461A4602F0AB
:1016B0003DF90346C7F8F030D7F8FC305A1CC7F89C
:1016C000FC200A2B06DD7B6893F85030002B01D0FC
:1016D000012300E00023002B59D00023C7F8FC3081
:1016E0003B691846FEF7B8FE04460D467B6918466E
:1016F000FEF7B2FE804689463B6A1846FEF7ACFE0E
:1017000002460B46CDE90089CDE902233548224641
:101710002B4602F045FDD7F894301846FEF79CFEA4
:1017200004460D467B681B6E1846FEF795FE024682
:101730000B46CDE900232C4822462B4602F030FD13
:101740007B6A1846FEF788FE04460D46BB6A1846BB
:10175000FEF782FE02460B46CDE9002323482246CF
:101760002B4602F01DFD2248D7F8F01002F018FDBC
:101770007B6893F85B30002B03D01E4802F010FD0D
:1017800002E01D4802F00CFD1C4802F009FD7B68D8
:1017900093F85B30002B08D07B685A6ED7F8F03096
:1017A0001046194602F0BAF905E07B685B6E1846F0
:1017B000002102F0B3F97B6893F85130002B01D07F
:1017C00000BFF0E503F0C6F80D4A4FF00003121811
:1017D00043EB01031046194600220BF0C1FA53E710
:1017E0007C13010890130108A8130108C013010815
:1017F000D8130108EC13010804140108141401089B
:101800008096980080B584B000AFF860B9607A60C7
:10181000FB681846084964224FF4FA630BF050F94C
:10182000FB68064A1A60FB687A681A65FB68184606
:101830001037BD4680BD00BF2C14010800240108EC
:1018400080B582B000AF78607B68084A1A607B6818
:1018500018460BF0A3F90023002B02D0786802F0A1
:1018600039FF7B6818460837BD4680BD0024010853
:1018700080B582B000AF78607868FFF7E1FF7868E4
:1018800002F028FF7B6818460837BD4680BD00BFC0
:1018900080B483B000AF78600C37BD465DF8047B40
:1018A000704700BF0000000080B584B000AF7860D2
:1018B0004FF0FF306FF0004100220BF051FA264844
:1018C00002F06EFC254802F06BFC7B681B6D18462D
:1018D0004FF47A7102F022F90023FB6013E003F069
:1018E00039F81BA3D3E90023121843EB0103104678
:1018F000194600220BF034FAFB68C3F112031848B2
:10190000194602F04DFCFB685A1CFA60112BCCBF43
:1019100000230123DBB2002BE1D1124802F040FC8E
:101920007B681B6D1846002102F0F8F84FF0FF307D
:101930006FF0004100220BF013FA0B4802F030FC6C
:101940004FF0FF306FF0004100220BF009FAF4E78E
:1019500000CA9A3B000000003C140108581401081A
:101960007C140108841401089C140108AFF3008062
:1019700080B582B000AF78607B689B687868194654
:1019800002F0CCF80837BD4680BD00BF80B582B0FC
:1019900000AF78607B689B685B427868194602F00C
:1019A000BDF80837BD4680BD80B582B000AF786015
:1019B0007868002102F0B2F80837BD4680BD00BF4C
:1019C00080B483B000AF78607B68012283F8512037
:1019D0000C37BD465DF8047B704700BF80B483B010
:1019E00000AF78607B68012283F852200C37BD4637
:1019F0005DF8047B704700BF80B483B000AF7860AF
:101A00007B68012283F853200C37BD465DF8047BC8
:101A1000704700BF80B483B000AF78607B6801225C
:101A200083F854200C37BD465DF8047B704700BF37
:101A300080B483B000AF78607B68012283F85620C1
:101A40000C37BD465DF8047B704700BF80B483B09F
:101A500000AF78607B68012283F859200C37BD46BF
:101A60005DF8047B704700BF80B483B000AF78603E
:101A70007B68012283F857200C37BD465DF8047B54
:101A8000704700BF80B483B000AF78607B680122EC
:101A900083F858200C37BD465DF8047B704700BFC3
:101AA00080B483B000AF78607B68012283F85A204D
:101AB0000C37BD465DF8047B704700BF80B483B02F
:101AC00000AF786039607B683A68DA650C37BD46EC
:101AD0005DF8047B704700BF80B483B000AF7860CE
:101AE0007B6893F85B3083F00103DAB27B6883F89C
:101AF0005B200C37BD465DF8047B704780B483B033
:101B000000AF78607B6893F8503083F00103DAB25D
:101B10007B6883F850207B6893F8503018460C3768
:101B2000BD465DF8047B704780B582B000AF786039
:101B300039607B6818460A4964224FF4FA630AF058
:101B4000BFFF7B68074A1A607B6800225A657B6882
:101B50005A6D7B681A657B6818460837BD4680BD9C
:101B6000C41401081824010880B582B000AF786061
:101B70007B68084A1A607B6818460BF00FF8002350
:101B8000002B02D0786802F0A5FD7B681846083764
:101B9000BD4680BD1824010880B582B000AF7860D2
:101BA0007868FFF7E1FF786802F094FD7B681846DB
:101BB0000837BD4680BD00BF80B582B000AF7860F9
:101BC000054801F077FF054801F074FF044801F073
:101BD00071FF0837BD4680BDE00B0020FC0B0020E4
:101BE000180C002080B590B000AF78604FF0FF3344
:101BF000FB63002387F83B307B6800225A657B68D3
:101C00005A6D7B681A654FF0FF33FB63002387F83A
:101C10003B307B6800225A65FB6B0133FB63324823
:101C20004FF0FF326FF0004302F0D8FB2E4806F071
:101C3000C1FF03467868194600F0ECF9034687F8BF
:101C40003A3007F10802FB6B134497F83A201A70F8
:101C500097F93A300A2B26D197F83B3083F00103ED
:101C6000DBB2002B0FD007F10802FB6B13440022FC
:101C70001A7007F108037868194600F05BF902460C
:101C80007B681A652CE007F10802FB6B1344002205
:101C90001A7007F108037868194600F07BF90246CC
:101CA0007B685A651CE097F93A30202B14D107F174
:101CB0000802FB6B134400221A7007F108037868CE
:101CC000194600F037F902467B681A65012387F848
:101CD0003B304FF0FF33FB6397F93A300A2B9BD12F
:101CE000786800F003F88EE78C22002080B584B07D
:101CF00000AF78607B681B6D152B00F2EE8001A2AF
:101D000052F823F05D1D0008771D0008911D0008A2
:101D1000AB1D0008C51D0008DF1D0008E71D0008F9
:101D2000F51D0008031E0008111E0008431E0008D0
:101D30004B1E0008671E0008751E0008831E000861
:101D4000911E00089F1E0008B31E0008BB1E00085D
:101D5000C31E0008CB1E0008D31E00087B685B6D05
:101D600063481946FFF7AAFE6148FFF729FE60485D
:101D7000FFF796FEB8E07B685B6D5D481946FFF79C
:101D80009DFE5B48FFF71CFE5948FFF75FFEABE086
:101D90007B685B6D56481946FFF790FE5448FFF785
:101DA0000FFE5348FFF76EFE9EE07B685B6D504868
:101DB0001946FFF783FE4E48FFF702FE4C48FFF737
:101DC00053FE91E07B685B6D49481946FFF776FE4C
:101DD0004748FFF7F5FD4648FFF72AFE84E04448F0
:101DE000FFF77AFE80E04248FFF7EAFD4048FFF740
:101DF00011FE79E03E48FFF7E3FD3D48FFF7FCFDAB
:101E000072E03B48FFF7DCFD3948FFF7E7FD6BE088
:101E10000023FB6010E0FA681346DB009B1A9B006E
:101E2000344A1344184600F021FC0346184602F0D9
:101E3000B7F9FB680133FB60FA6816239A42EAD3CC
:101E400052E02D4802F0ACF94EE02948FFF756FE6B
:101E50000346002B03D0294802F0A2F944E02848A9
:101E600002F09EF940E07B685B6D2648194602F05F
:101E700097F939E0244802F093F92448FFF786FDEA
:101E800032E0234802F08CF92048FFF78DFD2BE06B
:101E9000204802F085F91D48FFF76AFD24E01E483E
:101EA00002F07EF97B685B6D1C48194601F036FE36
:101EB0001AE01B480AF038FF16E01A4802F070F9E1
:101EC00012E0194802F06CF90EE0184802F068F9C7
:101ED0000AE0164802F064F906E07B681B6D1448BE
:101EE000194602F05DF900BF1037BD4680BD00BF46
:101EF000900C0020D0080020D4140108001501081F
:101F0000141501082415010834150108180C0020C7
:101F1000441501085415010864150108E00B002060
:101F2000380C00207415010890150108A815010847
:101F3000BC15010880B584B000AF7860396000231B
:101F4000FB601BE0FA681346DB009B1A9B00104AFB
:101F50001344184600F07EFB03461846396802F029
:101F600083FB0346002B14BF00230123DBB2002BAD
:101F700001D0FB6808E0FB680133FB60FA681623B8
:101F80009A42DFD34FF0FF3318461037BD4680BD6D
:101F9000D008002080B487B000AF786039603B681B
:101FA0001B785BB22D2B14BF00230123FB7200238F
:101FB0007B6101233B610023FB60FB7A002B04D093
:101FC00001237B614FF0FF333B6111E0FA68134658
:101FD0009B0013445B00FB607B693A6813441B78E9
:101FE0005BB2303BFA681344FB607B6901337B6171
:101FF0007B693A6813441B78002BE7D1FB683A6988
:1020000002FB03F3FB60FB6818461C37BD465DF816
:10201000047B704780B483B000AF786039603B6860
:10202000602B08DD3B687A2B05DC3B68DBB2203B8C
:10203000DBB2DBB201E03B68DBB25BB218460C37C7
:10204000BD465DF8047B704790B583B000AF786003
:10205000064C074B9C4205D01C3C23681B6820465D
:102060009847F6E70C37BD4690BD00BF380B0020FF
:10207000D008002090B585B002AF786039607B68E9
:10208000012B40F030813A684FF6FF739A4240F0DE
:102090002A81964C4FF4B4730093954B01932046DC
:1020A0009449954A002300F08BFA1C344FF47A735C
:1020B0000093924B0193204691498F4A002300F0F0
:1020C0007FFA1C344FF47A7300938E4B01932046B1
:1020D0008D49894A002300F073FA1C344FF47A7357
:1020E00000938A4B019320468949834A002300F0DC
:1020F00067FA1C344FF4B4730093864B0193204667
:1021000085497D4A002300F05BFA1C344FF4B47318
:102110000093824B019320468149774A002300F0C7
:102120004FFA1C3420467F49734A7F4B00F022FA55
:102130001C3420467D49704A7D4B00F01BFA1C344C
:1021400020467C496C4A7C4B00F014FA1C34204633
:102150007A49694A7A4B00F00DFA1C3420467949D5
:10216000654A794B00F006FA1C3420467749624AEA
:10217000774B00F0FFF91C34764B0093764B0193BC
:10218000204676495C4A734B00F01AFA1C3420460C
:102190007349594A734B00F0EDF91C3420467249DB
:1021A000554A724B00F0E6F91C3420467049524AF9
:1021B000704B00F0DFF91C3420466F494E4A6F4BDC
:1021C00000F0D8F91C3420466D494B4A6D4B00F0A5
:1021D000D1F91C3420466C49474A6C4B00F0CAF9CF
:1021E0001C344FF4B4730093694B01932046694942
:1021F000414A002300F0E4F91C344FF4B473009317
:10220000654B0193204665493B4A002300F0D8F90D
:1022100004F11C034FF4B4720092614A0192184613
:102220006049354A002300F0CBF900205E495F4A3F
:102230000BF0EAFB5E485F4900F0F4F85C485E4949
:102240005A4A0BF0E1FB5D485D49FFF76DFC5B48C6
:102250005C49564A0BF0D8FB5B4B00935B4B0193F8
:102260005B484FF47A714FF47A725A4B01F0D8FB05
:10227000574859494D4A0BF0C7FB584B0093584BF0
:10228000019358484FF47A714FF47A72564B01F02B
:10229000C7FB54485049454A0BF0B6FB534B0093DB
:1022A000534B019353484FF47A714FF47A72524B67
:1022B00001F0B6FB4F4848493C4A0BF0A5FB4F489C
:1022C0004F49434AFFF79EFA4C484E49374A0BF0B4
:1022D0009BFB4D484D49434AFEF7A8FF4A484C49ED
:1022E000324A0BF091FB0C37BD4690BDD008002060
:1022F000E4150108D0150108D815010808160108D1
:1023000000160108281601082016010848160108C1
:1023100040160108681601086016010888160108B1
:1023200080160108AC160108B4160108D016010881
:10233000D8160108F0160108F8160108141701084C
:102340001C17010838170108401701085417010825
:102350005C17010818FCFFFF981701089017010887
:10236000BC170108C4170108E0170108E8170108A5
:10237000041801080C180108241801082C18010879
:10238000541801085C1801089018010898180108F1
:10239000DC180108D418010800190108F818010810
:1023A0002C1901082419010849200008DC1000201C
:1023B000380B00205419010859240008880B00200C
:1023C00060190108691B0008F40D0020100E0020A0
:1023D000E00B0020D80D00206D3A0008480E0020C8
:1023E000640E0020FC0B00202C0E00209C0E002010
:1023F000B80E0020180C0020800E0020380C0020A1
:102400006C19010841180008900C0020741901088B
:10241000D512000880B500AF01204FF6FF71FFF71D
:1024200029FE80BD80B582B000AF786039607B68DE
:102430001846074964224FF4FA630AF041FB7B68AF
:10244000044A1A607B6818460837BD4680BD00BF45
:102450007C1901083024010880B582B000AF786093
:102460007B68084A1A607B6818460AF097FB0023CD
:10247000002B02D0786802F02DF97B6818460837E7
:10248000BD4680BD3024010880B582B000AF7860C1
:102490007868FFF7E1FF786802F01CF97B6818465E
:1024A0000837BD4680BD00BF80B582B000AF786000
:1024B00006484FF4E13106F02DF9054801210122CB
:1024C000012303F015FD0837BD4680BDBC0D00207B
:1024D000F80C00200000000090B585B002AF7860D5
:1024E0007C6802F037FA02460B4610A1D1E90001E0
:1024F000CDE90001204602F0ADF908E00A4803F0FA
:1025000049FE0346DB430848194603F0F7FD7B68A4
:10251000184602F0B5F90123002BEFD10C37BD4668
:1025200090BD00BFAFF30080F80C002000CA9A3BBA
:1025300000000000AFF3008080B582B000AF78608B
:1025400039607B68012B08D13A684FF6FF739A42D5
:1025500003D103483F2103F097FC0837BD4680BDF7
:10256000F80C002080B500AF01204FF6FF71FFF797
:10257000E3FF80BD80B485B000AFF860B9607A60D9
:102580003B60FB680D4A1A60FB68BA685A60FB68DA
:102590007A689A60FB683A68DA60FB6800221A6120
:1025A000FB6800225A61FB6800221A76FB68184615
:1025B0001437BD465DF8047B704700BF482401080E
:1025C00080B485B000AFF860B9607A603B60FB68AA
:1025D0000D4A1A60FB68BA685A60FB687A689A60AC
:1025E000FB68FA69DA60FB683A681A61FB68BA69E5
:1025F0005A61FB6801221A76FB6818461437BD46FB
:102600005DF8047B704700BF4824010880B582B0A4
:1026100000AF78607B68064A1A600023002B02D066
:10262000786802F057F87B6818460837BD4680BDC9
:102630004824010880B582B000AF78607868FFF761
:10264000E5FF786802F046F87B6818460837BD4613
:1026500080BD00BF80B483B000AF78607B685B68EA
:1026600018460C37BD465DF8047B704780B596B0C0
:1026700000AF78607B685A687B68DB6807F1080107
:10268000084604490BF0C6F907F108031846583705
:10269000BD4680BD8C19010880B582B000AF78605E
:1026A00039607B68524A1A607B686B2283F85C2031
:1026B0007B68A82283F85D207B684E4A5E331288CF
:1026C0001A807B684C4A603312881A807B684B4AB8
:1026D000623312881A807B681D2283F864207B682D
:1026E000A82283F865207B68882283F866207B68AF
:1026F000434A673312881A807B68212283F8692055
:102700007B68002283F86A207B683E4A6B3312881C
:102710001A807B68252283F86D207B68002283F86D
:102720006E207B68262283F86F207B68002283F866
:1027300070207B683A689A657B684FF000029A6166
:102740007B689A697B685A617B685A697B681A6101
:102750007B681A697B68DA607B68DA687B689A60F4
:102760007B689A687B685A607B684FF000021A6346
:102770007B681A6B7B68DA627B68DA6A7B689A62CC
:102780007B689A6A7B685A627B685A6A7B681A62BD
:102790007B681A6A7B68DA617B684FF000025A65D1
:1027A0007B685A6D7B681A657B681A6D7B68DA6393
:1027B0007B68DA6B7B68DA647B68DA6C7B689A64C6
:1027C0007B689A6C7B689A637B689A6B7B685A64B7
:1027D0007B685A6C7B681A647B681A6C7B685A63E6
:1027E000786800F035F87B6818460837BD4680BD2C
:1027F00058240108981901089C190108A01901081A
:10280000A4190108A819010880B582B000AF78604A
:102810007B68064A1A600023002B02D0786801F01A
:1028200059FF7B6818460837BD4680BD582401080B
:1028300080B582B000AF78607868FFF7E5FF786810
:1028400001F048FF7B6818460837BD4680BD00BFD1
:1028500080B582B000AF7860584801210122012381
:1028600003F046FB564801210122012303F040FBFF
:10287000544801210122012303F03AFB52485349F5
:1028800003F0C4FE7B6893F85C207B685E334E489F
:1028900011461A46022304F009F803469BB21BB204
:1028A00078681946022200F093F87B6893F85C2060
:1028B0007B686033444811461A46022303F0F6FF52
:1028C00003469BB21BB278681946022200F080F8DA
:1028D0007B6893F85C207B6862333B4811461A465C
:1028E000022303F0E3FF03469BB21BB2786819464C
:1028F000022200F06DF87B6893F864207B686733F0
:10290000314811461A46022303F0D0FF03469BB21A
:102910001BB278681946022200F05AF87B6893F8D7
:1029200064207B686933284811461A46022303F065
:10293000BDFF03469BB21BB278681946022200F025
:1029400047F87B6893F864207B686B331E48114618
:102950001A46022303F0AAFF03469BB21BB2786813
:102960001946022200F034F87B6893F864207B68F3
:102970006D33154811461A46022303F097FF0346AC
:102980009BB21BB278681946022200F021F87B68DE
:1029900093F864207B686F330B4811461A46022374
:1029A00003F084FF03469BB21BB2786819460222EB
:1029B00000F00EF80837BD4680BD00BF140D0020A2
:1029C000300D0020A00D00204C0D0020801A0600C4
:1029D00080B582B000AF786013460A467A807B707B
:1029E00097F901309BB2B7F902201BB29A420BD083
:1029F00097F90120B7F90230054811461A4601F04F
:102A0000CFFB786800F008F80837BD4680BD00BFEE
:102A1000AC1901080000000080B582B000AF7860FA
:102A20001D4803F07FFE01F095FF19A3D3E90023B1
:102A3000121843EB01031046194600220AF090F9E0
:102A40001548164903F0E2FD1548002103F056FB36
:102A5000144801F0A5FB01F07DFF0DA3D3E900238D
:102A6000121843EB01031046194600220AF078F9C8
:102A70000B48012103F042FB0948012101220123F7
:102A800003F036FA7868FFF7E3FE0837BD4680BDED
:102A9000404B4C00000000004C0D0020801A060046
:102AA000A00D0020DC190108B0B586B002AF786037
:102AB0007B6893F864207B68653307F10801009117
:102AC000062101914A4811461A46012303F022FFCC
:102AD00003469BB21BB2786819460622FFF778FFBF
:102AE0007B7A1B029AB23B7A13439BB21BB2184605
:102AF000FDF7A0FC02460B46104619463AA3D3E95F
:102B00000023FDF7FDFC02460B4614461D467B687C
:102B10001B691846FDF7A0FC02460B4620462946D5
:102B2000FDF73AFB02460B4610461946FDF7CAFF71
:102B300002467B685A60FB7A1B029AB2BB7A134347
:102B40009BB21BB21846FDF775FC02460B461046B9
:102B5000194625A3D3E90023FDF7D2FC02460B4614
:102B600014461D467B685B691846FDF775FC0246F6
:102B70000B4620462946FDF70FFB02460B46104642
:102B80001946FDF79FFF02467B689A607B7B1B021C
:102B90009AB23B7B13439BB21BB21846FDF74AFC2B
:102BA00002460B46104619460FA3D3E90023FDF752
:102BB000A7FC02460B4614461D467B689B691846D7
:102BC000FDF74AFC02460B4620462946FDF7E4FA8B
:102BD00002460B4610461946FDF774FF02467B6815
:102BE000DA601037BD46B0BD08AC1C5A643BAF3F3D
:102BF0004C0D0020AFF3008080B483B000AF78604C
:102C00007B68064A1A617B68054A5A617B68054AF7
:102C10009A610C37BD465DF8047B70470000CEC258
:102C2000000010410000C0C02DE9B04386B004AFE1
:102C30007860224801F0B4FA7B681A1D7B68103373
:102C4000786811461A46582300F03EF87B6803F175
:102C500008027B681433786811461A46592300F03D
:102C600033F87B6803F10C027B68183378681146EF
:102C70001A465A2300F028F87B681B691846FDF7AE
:102C8000EBFB04460D467B685B691846FDF7E4FBE9
:102C9000804689467B689B691846FDF7DDFB024646
:102CA0000B46CDE90089CDE90223054822462B4693
:102CB00001F076FA0837BD46BDE8B083EC1901088B
:102CC000141A0108000000002DE9B0438AB004AFD7
:102CD000F860B9607A60FB707B684FF000021A60A0
:102CE0000023FB8297F903305748194601F058FA40
:102CF000F868FFF7D9FEFB685B681846FDF7ACFB88
:102D000004460D46FB689B681846FDF7A5FB804608
:102D10008946FB68DB681846FDF79EFB02460B46BA
:102D2000CDE90089CDE90223484822462B4601F02F
:102D300037FA01F00FFE42A3D3E90023121843EB48
:102D400001031046194600220AF00AF8BB6893ED09
:102D5000007ADFED3F7AB4EEE77AF1EE10FA03DDA8
:102D6000FB8A01339BB200E00023FB82FB8A082B25
:102D700009D900BF7B684FF000021A600023BB82B4
:102D80000023FB822EE0ADE7F868FFF78DFEB7F970
:102D9000143007EE903AB8EEE77ABB68D3ED006ADC
:102DA000DFED2C7A76EEE77A77EE277AFDEEE77A9A
:102DB00017EE903ABB82BB681B681846FDF74CFBC8
:102DC00002460B46244801F0EBF901F0C3FD234A0B
:102DD0004FF00003121843EB01031046194600227E
:102DE00009F0BEFFFB8A5A1CFA82312B8CBF0023EC
:102DF0000123DBB2002BC7D1B7F91430184A82FB8C
:102E000003121211DB17D31A9BB21BB207EE103A52
:102E1000F8EEC77A7B68C3ED007A97F903407B68C8
:102E20001B681846FDF718FB02460B460D48214665
:102E300001F0B6F91837BD46BDE8B083AFF30080A6
:102E40000084D71700000000601A0108A01A0108CA
:102E50000080544400007A44B81A01088096980013
:102E60001F85EB51C41A0108B0B586B002AF786077
:102E70007B6893F85C207B685D3307F10801009163
:102E8000062101914A4811461A46012303F042FDEA
:102E900003469BB21BB2786819460622FFF798FDDD
:102EA0007B7A1B029AB23B7A13439BB21BB2184641
:102EB000FDF7C0FA02460B46104619463AA3D3E97D
:102EC0000023FDF71DFB02460B4614461D467B689A
:102ED0009B6A1846FDF7C0FA02460B462046294673
:102EE000FDF75AF902460B4610461946FDF7EAFD72
:102EF00002467B68DA61FB7A1B029AB2BB7A134303
:102F00009BB21BB21846FDF795FA02460B461046D7
:102F1000194625A3D3E90023FDF7F2FA02460B4632
:102F200014461D467B68DB6A1846FDF795FA024693
:102F30000B4620462946FDF72FF902460B46104660
:102F40001946FDF7BFFD02467B681A627B7B1B02B8
:102F50009AB23B7B13439BB21BB21846FDF76AFA49
:102F600002460B46104619460FA3D3E90023FDF78E
:102F7000C7FA02460B4614461D467B681B6B184673
:102F8000FDF76AFA02460B4620462946FDF704F98A
:102F900002460B4610461946FDF794FD02467B6833
:102FA0005A621037BD46B0BDEC51B81E85EB813F6B
:102FB0004C0D0020AFF300802DE9B0438AB004AF80
:102FC000786039605A4801F0EBF800237B6113E028
:102FD0003A687B69D31A5748194601F0E1F801F0C5
:102FE000B9FC51A3D3E90023121843EB01031046A7
:102FF0001946002209F0B4FE7B695A1C7A613A68CE
:103000009342ACBF00230123DBB2002BE0D10023AD
:103010007B617B684FF000021A637B681A6B7B68E8
:10302000DA627B68DA6A7B689A624FF000033B6180
:103030004FF00003FB604FF00003BB602AE07868AC
:10304000FFF712FF7B68D3ED077A97ED047A77EEEE
:10305000277AC7ED047A7B68D3ED087A97ED037A77
:1030600077EE277AC7ED037A7B68D3ED097A97ED7F
:10307000027A77EE277AC7ED027A01F06BFC2E4ACE
:103080004FF00003121843EB0103104619460022CB
:1030900009F066FE7B695A1C7A6140F2F312934292
:1030A000CCBF00230123DBB2002BC8D197ED047AFB
:1030B000DFED227AC7EE277A7B68C3ED0A7A97EDB7
:1030C000037ADFED1E7AC7EE277A7B68C3ED0B7AB1
:1030D00097ED027ADFED197AC7EE277A7B68C3EDA8
:1030E0000C7A7B689B6A1846FDF7B6F904460D46D4
:1030F0007B68DB6A1846FDF7AFF9804689467B6836
:103100001B6B1846FDF7A8F902460B46CDE900896E
:10311000CDE902230A4822462B4601F041F8183730
:10312000BD46BDE8B08300BF00CA9A3B0000000066
:10313000D81A0108081B0108809698000000FA437D
:10314000101B0108AFF300802DE9F0438FB004AFEE
:1031500078600023FB844F4801F022F87B6893F8E5
:1031600064207B68663307F10C0100910621019110
:10317000494811461A46012303F0CCFB03469BB293
:103180001BB2786819460622FFF722FC7B7B1B02E4
:103190009AB23B7B1343FB83FB8BBB84BB8C3B838F
:1031A000FB7B1B029AB2BB7B1343BB83BB8B7B8431
:1031B0007B8CFB827B7C1B029AB23B7C13437B8320
:1031C0007B8B3B843B8CBB820DE17B6893F8642056
:1031D0007B68663307F10C010091062101912E48AE
:1031E00011461A46012303F095FB03469BB21BB21E
:1031F000786819460622FFF7EBFB7B7B1B029AB22D
:103200003B7B13433B83FB7B1B029AB2BB7B134389
:10321000FB827B7C1B029AB23B7C1343BB82B7F9D7
:103220001820B7F924309A4201DD3B8B00E0BB8CBB
:10323000BB84B7F91820B7F91E309A4201DA3B8BEC
:1032400000E0FB8BFB83B7F91620B7F922309A42D6
:1032500001DDFB8A00E07B8C7B84B7F91620B7F98F
:103260001C309A4201DAFB8A00E0BB8BBB83B7F9C2
:103270001420B7F920309A4201DDBB8A00E03B8C74
:103280003B84B7F91420B7F91A309A4206DABB8AA0
:1032900005E000BF401B01084C0D00207B8B7B83A9
:1032A000FB8CA94AA2FB03125209642101FB02F222
:1032B0009B1A9BB2002B40F08980B7F91E3018464C
:1032C000FDF7B8F802460B46104619469CA3D3E911
:1032D0000023FDF715F902460B4610461946FDF787
:1032E000A9FB0646B7F924301846FDF7A3F80246B5
:1032F0000B461046194692A3D3E90023FDF700F9C7
:1033000002460B4610461946FDF794FB0546B7F9F1
:103310001C301846FDF78EF802460B46104619463B
:1033200087A3D3E90023FDF7EBF802460B461046CE
:103330001946FDF77FFB0446B7F922301846FDF722
:1033400079F802460B46104619467DA3D3E90023BF
:10335000FDF7D6F802460B4610461946FDF76AFB04
:103360008146B7F91A301846FDF764F802460B4655
:103370001046194672A3D3E90023FDF7C1F80246AF
:103380000B4610461946FDF755FB8046B7F920302D
:103390001846FDF74FF802460B461046194668A33B
:1033A000D3E90023FDF7ACF802460B461046194658
:1033B000FDF740FB0346CDF80090CDF80480029362
:1033C000624831462A46234600F0EAFE01F0C2FA7E
:1033D0005F4A4FF00003121843EB010310461946F1
:1033E000002209F0BDFCFB8C5A1CFA8440F2DB522F
:1033F00093428CBF00230123DBB2002B7FF4E5AEA8
:10340000B7F91E301846FDF715F802460B46104670
:1034100019464BA3D3E90023FDF772F802460B4689
:1034200010461946FDF74EFB02467B681A64B7F951
:103430001C301846FCF7FEFF02460B4610461946A4
:103440003FA3D3E90023FDF75BF802460B46104685
:103450001946FDF737FB02467B689A64B7F91A30C4
:103460001846FCF7E7FF02460B461046194634A300
:10347000D3E90023FDF744F802460B4610461946EF
:10348000FDF720FB02467B681A65B7F92420B7F9DF
:103490001E30D31A1846FCF7CDFF02460B461046E5
:1034A000194627A3D3E90023FDF72AF802460B4665
:1034B00010461946FDF706FB02467B685A64B7F9C9
:1034C0002220B7F91C30D31A1846FCF7B3FF024686
:1034D0000B46104619461AA3D3E90023FDF710F84E
:1034E00002460B4610461946FDF7ECFA02467B6889
:1034F000DA64B7F92020B7F91A30D31A1846FCF766
:1035000099FF02460B46104619460DA3D3E9002346
:10351000FCF7F6FF02460B4610461946FDF7D2FAB5
:1035200002467B685A657B681B6C1846FCF794FF63
:1035300004460D467B689B6C1846FCF78DFF09E03E
:103540007B14AE47E17AB43F1F85EB51841B010821
:1035500080969800804689467B681B6D1846FCF76C
:103560007BFF02460B46CDE90089CDE902231348D3
:1035700022462B4600F014FE7B685B6C1846FCF775
:103580006BFF04460D467B68DB6C1846FCF764FF56
:10359000804689467B685B6D1846FCF75DFF0246F6
:1035A0000B46CDE90089CDE90223054822462B468A
:1035B00000F0F6FD2C37BD46BDE8F083C81B0108BE
:1035C000E41B0108AFF3008080B582B000AF7860E3
:1035D00039607B68012B10D13A684FF6FF739A422D
:1035E0000BD10748202102F04FFC0648122102F0BF
:1035F0004BFC0548022102F0A3FF0837BD4680BD01
:10360000140D0020300D00204C0D002080B500AFBF
:1036100001204FF6FF71FFF7D7FF80BD80B582B064
:1036200000AF786039607B68012B08D13A684FF6AB
:10363000FF739A4203D10348012102F081FF08374A
:10364000BD4680BD680D002080B500AF01204FF65B
:10365000FF71FFF7E3FF80BD80B582B000AF7860F7
:1036600039607B680A4A1A607B683A689A627868AF
:10367000084900F067F87B68002283F834207868F6
:1036800000F02EF87B6818460837BD4680BD00BFA5
:10369000682401080000824280B582B000AF7860E3
:1036A0007B68064A1A600023002B02D0786801F07C
:1036B00011F87B6818460837BD4680BD68240108AC
:1036C00080B582B000AF78607868FFF7E5FF786872
:1036D00001F000F87B6818460837BD4680BD00BF82
:1036E00080B483B000AF78607B684FF000025A620C
:1036F0007B685A6A7B681A627B681A6A7B68DA613F
:103700007B68DA697B689A617B689A697B685A6131
:103710007B685A697B681A617B681A697B68DA6022
:103720007B68DA687B685A607B685A687B689A6055
:103730007B68012283F834200C37BD465DF8047B9A
:10374000704700BF80B483B000AF786039607B6899
:103750003A68DA627B68D3ED0B7AB7EE007A77EEDF
:10376000677A7B68C3ED0C7A0C37BD465DF8047B45
:10377000704700BF80B582B000AF786039607B6869
:10378000012B08D13A684FF6FF739A4203D10348E0
:10379000012101F08BFE0837BD4680BD840D00205D
:1037A00080B500AF01204FF6FF71FFF7E3FF80BD4A
:1037B00080B582B000AF786039607B68012B34D16E
:1037C0003A684FF6FF739A422FD11948372102F019
:1037D0005BFB1848022104F0AFFD17480C2103F0F1
:1037E0003BFE1648242102F04FFB1548112102F040
:1037F0004BFB14480D2103F02FFE1348102102F05B
:1038000043FB1248472102F03FFB11480E2103F011
:1038100023FE1048482102F037FB0F484A2102F0EE
:1038200033FB0E48422102F02FFB0837BD4680BD16
:10383000A00D0020BC0D0020D80D0020F40D0020AC
:10384000100E00202C0E0020480E0020640E0020D8
:10385000800E00209C0E0020B80E0020D40E002008
:1038600080B500AF01204FF6FF71FFF7A1FF80BDCB
:1038700080B483B000AF78607B68164A1A607B68BA
:10388000154A1A617B68154A5A607B68124A9A6029
:103890007B68114ADA607B684FF07C525A617B6822
:1038A0000F4A9A627B684FF000021A627B684FF001
:1038B0000002DA617B684FF000029A617B684FF08A
:1038C00000025A627B6818460C37BD465DF8047BDF
:1038D000704700BF782401080AD7233C295C8F3D3C
:1038E0000000DE4280B582B000AF78607B68064A97
:1038F0001A600023002B02D0786800F0EBFE7B6892
:1039000018460837BD4680BD7824010880B582B0CE
:1039100000AF78607868FFF7E5FF786800F0DAFEBE
:103920007B6818460837BD4680BD00BF80B487B0AD
:1039300000AFF860B9607A6097ED027AD7ED017A4E
:1039400077EE677AFB68C3ED067AFB68D3ED067AFB
:10395000F5EEC07AF1EE10FA03DDFB68D3ED067ADE
:1039600004E0FB68D3ED067AF1EE677AFB6893ED2D
:10397000057AF4EEC77AF1EE10FA0FDDFB6893EDED
:10398000077AFB68D3ED066AFB68D3ED047A66EE2E
:10399000A77A77EE277AFB68C3ED077AFB6893ED89
:1039A000017AFB68D3ED067A27EE277AFB68D3ED20
:1039B000026AFB68D3ED077A66EEA77A77EE277A7C
:1039C000C7ED057A97ED057AF1EE0C7AB4EEE77A59
:1039D000F1EE10FA02DD104B7B610AE097ED057AFB
:1039E000F1EE0C7AB4EEE77AF1EE10FA01D50B4B5A
:1039F0007B61FB6893ED0A7AD7ED057A67EE277A4B
:103A0000FDEEE77A17EE903A3B613B6918461C37AA
:103A1000BD465DF8047B70470000E0400000E0C058
:103A200080B485B000AFF860B9607A603B60FB6835
:103A30000D4A1A60FB68BA685A60FB687A689A6037
:103A4000FB683A68DA60FB68BA691A61FB68FA6970
:103A50005A61FB6801221A76FB6818461437BD4686
:103A60005DF8047B704700BF8824010880B582B0F0
:103A700000AF78607B68064A1A600023002B02D0F2
:103A8000786800F027FE7B6818460837BD4680BD81
:103A90008824010880B582B000AF78607868FFF7AD
:103AA000E5FF786800F016FE7B6818460837BD46CB
:103AB00080BD00BF80B582B000AF78607B68D968F8
:103AC0007B685A687B689B68084611461A4603F073
:103AD000EDFC114801210122012302F009FA7B6863
:103AE0001B69184601210122002302F001FA7B68BC
:103AF0005B69184601210122012302F0F9F97B6874
:103B000001221A767B68DB681846002104F034F93C
:103B10000837BD4680BD00BFD40E002090B583B0ED
:103B200000AF786039603B68002B03DA7B681B7E4E
:103B3000002B09D13B68002B27DD7B681B7E83F0BF
:103B40000103DBB2002B20D07B681B7E83F00103D6
:103B5000DAB27B681A767B681C697B681B69184639
:103B600002F018FB0346DB432046194602F0C6FA72
:103B70007B685C697B685B69184602F00BFB034657
:103B8000DB432046194602F0B9FA3B68002BB8BF68
:103B90005B423B607B689A683B689A4202DA7B68CA
:103BA0009B6800E03B683B607B68DA683B681046D6
:103BB000194604F0E1F80C37BD4690BD80B582B0DF
:103BC00000AF78607B680A4A1A600A4800F02EFB52
:103BD0007B680433184600F0CFFC0023002B02D092
:103BE000786800F077FD7B6818460837BD4680BDD1
:103BF000D8240108041C010880B582B000AF7860A9
:103C00007868FFF7DBFF786800F064FD7B68184692
:103C10000837BD4680BD00BF80B582B000AF786078
:103C20007B680A4A1A600A4800F000FB7B6804338C
:103C3000184600F0A1FC0023002B02D0786800F0A9
:103C400049FD7B6818460837BD4680BD60250108E0
:103C5000141C010880B582B000AF78607868FFF767
:103C6000DBFF786800F036FD7B6818460837BD46F4
:103C700080BD00BF80B582B000AF78607B68064A27
:103C80001A600023002B02D0786800F023FD7B68C7
:103C900018460837BD4680BDC024010880B582B0F3
:103CA00000AF78607868FFF7E5FF786800F012FDF4
:103CB0007B6818460837BD4680BD00BF80B584B01C
:103CC00000AFF860B9607A603B60044800F0AEFA7B
:103CD000002318461037BD4680BD00BF281C0108D0
:103CE00080B584B000AFF860B9607A60FB681846B0
:103CF000B96801227B6800F099FEFB68034A1A60EC
:103D0000FB6818461037BD4680BD00BFB0240108CF
:103D100080B483B000AF78607B68044A1A607B6827
:103D200018460C37BD465DF8047B7047C024010877
:103D300080B582B000AF78607B681846FFF7E8FF77
:103D40007B68114A1A607B681A1D7B689A607B68E1
:103D50005A1D7B68DA607B689A1D7B681A617B68F4
:103D600000221A7579684FF000024FF00003C1E994
:103D700008237B68D3E908237968C1E906237B68B7
:103D800018460837BD4680BD9824010880B582B02A
:103D900000AF78607B68084A1A607B681846FFF7B6
:103DA00069FF0023002B02D0786800F093FC7B6849
:103DB00018460837BD4680BD9824010880B582B0FA
:103DC00000AF78607868FFF7E1FF786800F082FC68
:103DD0007B6818460837BD4680BD00BF80B584B0FB
:103DE00002AF786039607B68012B33D13A684FF6B7
:103DF000FF739A422ED11948194940F2D17200F04E
:103E0000E5F816481749184A09F0FEFD17483C2105
:103E100002F03AF816484FF0FF31164AFFF760FFFC
:103E200013481549104A09F0EFFD1448FFF780FFC9
:103E3000124813490C4A09F0E7FD0023009311488A
:103E40000B490E4A104B00F04FFC0E480F49064A32
:103E500009F0DAFD0837BD4680BD00BFF00E002036
:103E6000B01C01080D400008DC1000200C0F0020E1
:103E7000280F0020BC1C0108C53E0008500F002080
:103E80008D3D0008780F0020C81C0108193C00086F
:103E900080B584B000AFF860B9607A603B607B6841
:103EA000012B04D9064800F0C1F9002304E0F868AA
:103EB000396800F035F8012318461037BD4680BD3B
:103EC000DC1C010880B582B000AF78607B680A4ACC
:103ED0001A600A4800F0AAF97B681846FFF76EFEE0
:103EE0000023002B02D0786800F0F4FB7B681846B2
:103EF0000837BD4680BD00BFB0240108F01C010892
:103F000080B582B000AF78607868FFF7DBFF786833
:103F100000F0E0FB7B6818460837BD4680BD00BF57
:103F200080B485B000AF786039607B68DB68FB6087
:103F30007B689A687B68DA607B68FA689A607B685D
:103F40001B7DDBB2002B09D07B689B68FB607B6824
:103F50001A697B689A607B68FA681A617B68D3E9A2
:103F60000623013243F100037968C1E906231437BF
:103F7000BD465DF8047B704780B500AF01204FF669
:103F8000FF71FFF72BFF80BD80B483B000AF786076
:103F90007B681B6818460C37BD465DF8047B70478C
:103FA00080B483B000AF78607B685B6818460C37DC
:103FB000BD465DF8047B704780B483B000AF786085
:103FC0000C37BD465DF8047B704700BF80B584B0F8
:103FD00000AFF860B9607A60FB680433184609499D
:103FE000BA68002300F080FAFB68074A1A60FB6891
:103FF0007A685A61FB6801221A76FB681846103706
:10400000BD4680BDA80F0020E824010880B582B01D
:1040100000AF78607B680A4A1A600A4800F006F927
:104020007B680433184600F0A7FA0023002B02D067
:10403000786800F04FFB7B6818460837BD4680BDA6
:10404000E8240108001D010880B582B000AF786047
:104050007868FFF7DBFF786800F03CFB7B68184668
:104060000837BD4680BD00BF80B483B000AF786024
:104070007B6801221A760C37BD465DF8047B7047D9
:1040800080B483B000AF78607B6800221A760C376A
:10409000BD465DF8047B704780B485B000AFF86022
:1040A000B9607A603B604FF0FF3318461437BD4665
:1040B0005DF8047B704700BF90B583B000AF154B2F
:1040C0001B68002B03D0134B1B68043B00E000234C
:1040D0007B6018E07B685C697B6804331846FFF7F7
:1040E0005FFF03460C4821461A4600F059F87B68EA
:1040F00004331846FFF748FF0346002B01D0043B6A
:1041000000E000237B607B68002BE3D10C37BD46C9
:1041100090BD00BFA80F0020141D010880B582B01B
:1041200000AF78607B68064A1A600023002B02D03B
:10413000786800F0CFFA7B6818460837BD4680BD26
:104140000825010880B582B000AF78607868FFF775
:10415000E5FF786800F0BEFA7B6818460837BD4670
:1041600080BD00BF80B582B000AF78600B46FB70A9
:1041700097F90330184608F053F90837BD4680BD5B
:1041800080B483B000AF78607B68044A1A607B68B3
:1041900018460C37BD465DF8047B704708250108BA
:1041A0000FB480B582B000AF1C4B1B68002B2FD022
:1041B0003B461846FFF7E4FF07F114037B60184BFA
:1041C0001B68002B05D0164B1B681648194601F0DA
:1041D0006BF808F07BFB034683F00103DBB2002B96
:1041E00005D03B461846396900F0ECFD0AE00E4860
:1041F00008F0BAFB3B461846396900F0E3FD0A486F
:1042000008F010FC08F04EF93B461846FFF786FF11
:104210000837BD46BDE8804004B070470400002068
:10422000AC0F0020301D0108B00F002080B582B017
:1042300000AF7860074B7A681A6007487968FFF723
:10424000AFFF064B1B685A1C044B1A600837BD466B
:1042500080BD00BF00000020441D0108AC0F0020FD
:1042600080B582B000AF786039607B68012B07D1E0
:104270003A684FF6FF739A4202D1034808F05CFB9C
:104280000837BD4680BD00BFB00F002080B500AF2D
:1042900001204FF6FF71FFF7E3FF80BD0FB480B43C
:1042A00000AF00231846BD465DF8047B04B070479C
:1042B00080B483B000AF78600C37BD465DF8047BF6
:1042C000704700BF0FB480B400AF00231846BD464E
:1042D0005DF8047B04B070470FB480B400AF0023D6
:1042E0001846BD465DF8047B04B0704780B483B0C7
:1042F00000AF7860002318460C37BD465DF8047B9C
:10430000704700BF80B483B000AF786000231846C8
:104310000C37BD465DF8047B704700BF0FB480B416
:1043200000AF00231846BD465DF8047B04B070471B
:104330000FB480B400AF00231846BD465DF8047B7F
:1043400004B070470FB480B400AF00231846BD46D8
:104350005DF8047B04B0704780B483B000AF786030
:104360007B680A4A1A607B6800221A617B68002217
:104370005A607B6800229A607B680022DA607B6862
:1043800018460C37BD465DF8047B704720250108B0
:1043900080B584B000AFF860C7E9002307F020FCC7
:1043A000FB681B6810331B68F86898470346002BAE
:1043B00002D007F01DFC0EE008F0AAFC0246FB68E4
:1043C0009A60FB689968D7E90023C1E90A2307F0DE
:1043D0000FFC08F027FC1037BD4680BD80B584B0C7
:1043E00000AFF860C7E9002307F0FAFBFB681B6821
:1043F00018331B68F86898470346002B02D007F073
:10440000F7FB0EE008F084FC0246FB68DA60FB680C
:10441000D968D7E90023C1E90A2307F0E9FB08F0CE
:1044200001FC1037BD4680BD80B582B000AF78601A
:104430007B689B68002B04D07B689B68184608F05B
:1044400073FC7B6800229A607B681B69002B07D095
:104450007B681B691B681B687A681269104698475D
:104460000837BD4680BD00BF80B582B000AF786020
:104470007B685B68002B04D07B685B68184608F09B
:1044800053FC7B6800225A607B681B69002B08D0B4
:104490007B681B691B6804331B687A6812691046C5
:1044A00098470837BD4680BD80B582B000AF7860C0
:1044B0007B68DB68002B04D07B68DB68184608F05B
:1044C00033FC7B680022DA607B681B69002B08D014
:1044D0007B681B691B6808331B687A681269104681
:1044E00098470837BD4680BD80B584B000AFF860FE
:1044F000B9607A603B60FB683A68DA60FB687A68AA
:104500005A60084B1B68591C064A1160FA68936090
:10451000F868B96800F008F8FB6818461037BD461F
:1045200080BD00BFC00F002080B582B000AF7860B2
:1045300039603B681A687B681A603B687A681A6061
:104540000A4B1B68002B0CBF00230123DBB2002B9E
:1045500008D00748FFF76AFE7B685B680548194684
:10456000FFF71EFE0837BD4680BD00BF8822002031
:10457000701D0108A41D010880B582B000AF7860ED
:104580000348FFF753FE7B6818460837BD4680BDD9
:10459000C81D010880B485B000AF78600023FB60BF
:1045A0007B68002B01D100230BE005E0FB680133A1
:1045B000FB607B6801337B607B681B78002BF5D147
:1045C000FB6818461437BD465DF8047B704700BF92
:1045D00080B487B000AFF860B9607A60FB68002BE8
:1045E00001D1FB6810E0FB687B6109E0BB68DAB2CF
:1045F0007B691A707B6901337B617B68013B7B605F
:104600007B68002BF2D1FB6818461C37BD465DF86D
:10461000047B704780B487B000AFF860B9607A60FF
:10462000FB687B61BB683B617B69002B02D03B6907
:10463000002B01D1002311E00CE03B691A787B6963
:104640001A707B68013B7B603B6901333B617B698E
:1046500001337B617B68002BEFD1FB6818461C3768
:10466000BD465DF8047B704780B485B000AF7860CC
:1046700039607B68002B07D13B68002B01D10023F8
:1046800001E04FF0FF331FE03B68002B01D1012315
:104690001AE07B685A1C7A601B78FB733B685A1CD3
:1046A0003A601B78BB73FA7BBB7B9A4202D24FF015
:1046B000FF3309E0FA7BBB7B9A4201D9012303E077
:1046C000FB7B002BE5D1002318461437BD465DF86F
:1046D000047B704780B483B000AF78600C37BD4670
:1046E0005DF8047B704700BF80B584B000AFF86010
:1046F000B9607A603B60FB68043318461049114A80
:104700000023FFF7F1FEFB680F4A1A60FB68BA68E6
:104710005A61FB682033184608F00EF9FB683A7EB0
:104720001A77FB6801225A77FB683A689A60FB683F
:104730007A689A61FB6818461037BD4680BD00BF95
:1047400050230020F01D01086025010880B485B0C9
:1047500000AFF860B9607A603B60034B18461437CD
:10476000BD465DF8047B704715CD5B0790B587B0FB
:1047700002AFF860B9607A603B60FB685B7F83F0F2
:104780000103DBB2002B01D000233DE0FB682033A6
:10479000184608F0E9F8FB689B69002B0FD0FB680E
:1047A0009B691B6808331C68FB689A697B68396AD7
:1047B00000911046B9681A463B68A04718E0FB68AC
:1047C0001B681C683B6A5B690093F868B9687A6883
:1047D0003B68A04702460E4B9A420CBF00230123C0
:1047E000DBB2002B04D00B48FFF720FD01230BE0C8
:1047F000FB682033184608F015F9FB689B69002B0D
:1048000001D0012300E0002318461437BD4690BDB7
:1048100015CD5B07FC1D010890B58DB002AFF860A7
:10482000B9607A603B60FB689B69002B0FD0FB6826
:104830009B691B6808331C68FB689A693B6807F131
:10484000100100911046B9681A467B68A0472C37C2
:10485000BD4690BD80B485B000AFF860C7E90023C5
:10486000F968D7E90023C1E90E23F968D7E90623DF
:10487000C1E910231437BD465DF8047B704700BFC3
:10488000B0B586B002AF786006E04FF0FF306FF051
:104890000041002208F064FA7B68D3E9102352EA51
:1048A0000301F2D07B68D3E90E231046194600229B
:1048B00008F056FA00F04EF8C7E902017B68D3E928
:1048C0000E017B68D3E91023D7E90245CDE9004505
:1048D00000F04AF802460B467968C1E90E2310370A
:1048E000BD46B0BD80B584B000AF786008F010FA66
:1048F000F860F86808F0F2F9B860F868796808F0CC
:10490000F9F9BB6818461037BD4680BD80B483B046
:1049100000AF786079684FF000024FF00003C1E902
:10492000002379684FF000024FF00003C1E9022331
:1049300079684FF000024FF00003C1E904237B685F
:1049400011229A617B6818460C37BD465DF8047BDE
:10495000704700BF80B500AF07F082FC02460B46EF
:104960001046194680BD00BF80B584B000AFC7E9CE
:104970000201C7E90023D7E90223D7E906019042E3
:1049800071EB030C02DAD7E902232CE0D7E900230C
:1049900052EA030104D14FF0FF326FF0004322E0EE
:1049A000D7E90601D7E90223821A61EB0303104617
:1049B0001946D7E90023FCF7D5F802460B46013229
:1049C00043F10003396803FB01F0796802FB01F150
:1049D00001443868A0FB022319440B46D7E90201C1
:1049E000121843EB0103104619461037BD4680BD2F
:1049F00080B582B000AF786039607B68012B07D149
:104A00003A684FF6FF739A4202D10348FFF77EFFE0
:104A10000837BD4680BD00BFC80F002080B500AF7D
:104A200001204FF6FF71FFF7E3FF80BD80B586B030
:104A300000AFF860B9607A603B60FB6804331846E9
:104A40002E493A680023FFF74FFDFB682C4A1A6095
:104A5000FB6800225A61FB68BA68DA61FB687A6811
:104A60001A62FB6800229A61FB68DB69B3F1FF3FC1
:104A700011D1386808F042FC03461A46FB68DA6137
:104A8000FB68DB69B3F57A7F05DAFB68DB6903F560
:104A90007A72FB68DA61194B1B68002B03D0174B45
:104AA0001B68043B00E000237B611EE07B69DA6940
:104AB000BB689A420DD17A69FB689A4209D01148C5
:104AC000FFF7B4FB7B699B680F48B9683A68FFF74A
:104AD00067FB7B6904331846FFF756FA0346002B41
:104AE00001D0043B00E000237B617B69002BDDD11A
:104AF000FB6818461837BD4680BD00BF6023002004
:104B0000D82401085C1E0108701E010880B582B01F
:104B100000AF78607B680A4A1A600A48FFF786FB94
:104B20007B681846FFF74AF80023002B02D078680C
:104B3000FFF7D0FD7B6818460837BD4680BD00BF33
:104B4000A0250108E81E010880B582B000AF78609A
:104B50007868FFF7DBFF7868FFF7BCFD7B681846D5
:104B60000837BD4680BD00BF80B584B000AFF86097
:104B7000B9607A60FB681846B9680C227B68FFF759
:104B800055FFFB68034A1A60FB6818461037BD469C
:104B900080BD00BFA025010880B584B000AFF860DB
:104BA000B9607A60FB681846B96840F22E527B689B
:104BB000FFF73CFFFB68034A1A60FB681846103792
:104BC000BD4680BD9025010880B584B000AFF86077
:104BD000B9607A60FB681846B96804227B68FFF701
:104BE00025FFFB68034A1A60FB6818461037BD466C
:104BF00080BD00BF8025010880B582B000AF78601D
:104C000039607B68012B4FD13A684FF6FF739A42A7
:104C10004AD1274827490A22FFF7D8F924482649CC
:104C2000264A08F0F1FE26480021264AFFF79CFF9D
:104C300023482549214A08F0E7FE24484FF0FF3178
:104C4000234AFFF7A9FF214822491C4A08F0DCFE4D
:104C500021484FF0FF31214AFFF7B6FF1E48204997
:104C6000164A08F0D1FE1F484FF0FF311E4AFFF7E9
:104C7000ABFF1C481A49114A08F0C6FE1B484FF00A
:104C8000FF311B4AFFF7A0FF184815490B4A08F0EF
:104C9000BBFE18484FF0FF31174AFFF765FF154874
:104CA0000949064A08F0B0FE0837BD4680BD00BF7E
:104CB000E80F0020F81E01080D400008DC1000205D
:104CC000041000200C1F01080D4B000828100020C4
:104CD0001C1F0108594D00084C100020281F010816
:104CE000FD4C000870100020381F010894100020AF
:104CF000481F0108B81000205C1F010880B582B071
:104D000000AF78607B680A4A1A600A48FFF78EFA9B
:104D10007B681846FEF752FF0023002B02D078680C
:104D2000FFF7D8FC7B6818460837BD4680BD00BF3A
:104D300080250108E81E010880B582B000AF7860C8
:104D40007868FFF7DBFF7868FFF7C4FC7B681846DC
:104D50000837BD4680BD00BF80B582B000AF786027
:104D60007B680A4A1A600A48FFF760FA7B681846AF
:104D7000FEF724FF0023002B02D07868FFF7AAFC7F
:104D80007B6818460837BD4680BD00BF90250108E6
:104D9000E81E010880B582B000AF78607868FFF740
:104DA000DBFF7868FFF796FC7B6818460837BD463E
:104DB00080BD00BF80B500AF01204FF6FF71FFF747
:104DC0001BFF80BD80B594B000AF7860396056E2BB
:104DD000002387F84E30002387F84D30002387F8F2
:104DE0004C30002387F84B3097F84F30252B0AD0F2
:104DF0007B681B6808331B6897F84F2052B27868AD
:104E0000114698473BE23B685A1C3A601B7887F88A
:104E10004F30002387F84330202387F842300323A4
:104E200087F8413097F84F30302B09D197F84F3041
:104E300087F842303B685A1C3A601B7887F84F303D
:104E400097F84F302F2B0ED997F84F30392B0AD8BF
:104E500097F84F30303B87F843303B685A1C3A6034
:104E60001B7887F84F3097F84F302E2B10D13B68C6
:104E70005A1C3A601B7887F84F3097F84F30303B18
:104E800087F841303B685A1C3A601B7887F84F30EE
:104E900097F84F306C2B08D1012387F84D303B68D1
:104EA0005A1C3A601B7887F84F3097F84F306C2BBC
:104EB00008D1012387F84C303B685A1C3A601B78B4
:104EC00087F84F3097F84F30623B162B38D801A146
:104ED00051F823F0CD4F0008314F0008B74F0008BC
:104EE000414F0008B14F0008414F0008414F0008F2
:104EF000414F0008414F0008414F0008414F000852
:104F0000414F0008414F00089B4F0008414F0008E7
:104F1000414F0008414F0008574F0008414F00081B
:104F2000BD4F0008414F0008414F0008C54F000821
:104F30007B685B68191D7A6851601B6887F84F3081
:104F40007B681B6808331B6897F84F2052B278685B
:104F50001146984793E17B685B68191D7A68516038
:104F60001B687B6409E07B681B6808331B6897F843
:104F70004F2052B27868114698477B6C5A1C7A646D
:104F80001B7887F84F3097F84F30002B0CBF002369
:104F90000123DBB2002BE6D171E10823A7F84830EA
:104FA0007B681B6808331B6878683021984711E0DC
:104FB000012387F84B30012387F84E300A23A7F8E6
:104FC000483007E01023A7F8483003E00223A7F891
:104FD000483000BF4FF000024FF00003C7E90C2338
:104FE0004FF000024FF00003C7E90A2397F84B3057
:104FF000002B15D07B685B68073323F0070303F1B0
:1050000008017A685160D3E90023C7E90A23D7E988
:105010000A01FBF7D9FD02460B46C7E90C232CE039
:1050200097F84C30002B0DD07B685B68073323F07A
:10503000070303F108017A685160D3E90023C7E947
:105040000C231AE097F84D30002B0BD07B685B687F
:10505000191D7A6851601B681A464FEAE273C7E966
:105060000C230AE07B685B68191D7A6851601B6835
:105070001A464FEAE273C7E90C2397F84E30002B2B
:105080002DD0D7E90C23002A73F100010ADBD7E900
:105090000A014FF000024FF00003FBF7A3FC0346A8
:1050A000002B1CD0D7E90C23524263EB4303C7E922
:1050B0000C23BB6ABB62FB6A83F00043FB627B6824
:1050C0001B6808331B6878682D21984797F8433090
:1050D000002B04D097F84330013B87F8433097F812
:1050E0004C30002B04D0D7E90C23C7E90E2310E085
:1050F00097F84D30002B06D03B6B1A464FF000035B
:10510000C7E90E2305E03B6B1A464FF00003C7E9E1
:105110000E2307F10C031A337B647B6C013B7B6429
:105120007B6C00221A70B7F848204FF00003D7E9D3
:105130000E01FBF733FDD3B23033DBB287F82730F3
:1051400097F92730392B05DD97F827300733DBB285
:1051500087F827307B6C013B7B6497F827207B6CBA
:105160001A70B7F848204FF00003D7E90E01FBF79B
:1051700015FD02460B46C7E90E2397F84330002B76
:1051800004D097F84330013B87F84330D7E90E232A
:1051900052EA0301C7D106E07B6C013B7B647B6C68
:1051A00097F842201A7097F843305A1E87F8432028
:1051B000002B0CBF00230123DBB2002BECD109E054
:1051C0007B681B6808331B6897F84F2052B27868D9
:1051D000114698477B6C5A1C7A641B7887F84F30CD
:1051E00097F84F30002B0CBF00230123DBB2002BBC
:1051F000E6D197F84B30002B41D07B681B68083311
:105200001B6878682E2198472DE0D7E90C01FBF741
:1052100049F902460B46D7E90A01FAF7BDFF0246F3
:105220000B46C7E90A23D7E90A014FF000021D4BDC
:10523000FBF766F902460B46C7E90A23D7E90A01DC
:10524000FBF7C2FC02460B46C7E90C237B681B68D0
:1052500008331B6897F830203032D2B2D2B252B243
:1052600078681146984797F841305A1E87F84120D0
:10527000002B0CBF00230123DBB2002BC5D13B6800
:105280005A1C3A601B7887F84F3097F84F30002B44
:105290000CBF00230123DBB2002B7FF499AD503704
:1052A000BD4680BD000024400FB480B582B000AF81
:1052B0000C4B1B68002B0FD03B461846FEF760FFD7
:1052C00007F114037B603B4618463969FFF77AFD06
:1052D0003B461846FEF722FF0837BD46BDE8804032
:1052E00004B070470400002080B582B000AF0C4BC2
:1052F0007B6008E07B681B6898473B6801333B6034
:105300007B6804337B607A68064B9A42F2D13B6833
:1053100001333B603B68013B3B600837BD4680BDC5
:10532000042901084429010880B485B000AFF86061
:10533000B9607A60002318461437BD465DF8047BD7
:10534000704700BF80B400AFFEE700BF002100F04F
:1053500004B8124B5B58435004311148114B4218AA
:105360009A42FFF4F6AF104A00F003B8002342F867
:10537000043B0E4B9A42FFF4F9AF0D4A00F003B81C
:10538000002342F8043B0B4B9A42FFF4F9AF07F0BD
:105390008FF8FFF7A9FF08F009F9704744290108C1
:1053A00000000020CC080020D0080020ACC3002062
:1053B000000000100000001006F0E8FFFFF7FCBF3F
:1053C00080B483B000AF786039603B6818460C3712
:1053D000BD465DF8047B704780B483B000AF786051
:1053E000002318460C37BD465DF8047B704700BFAC
:1053F00080B483B000AF7860012318460C37BD46F7
:105400005DF8047B704700BF80B483B000AF786064
:105410007B6818460C37BD465DF8047B704700BFBB
:1054200080B582B000AF78600B46FB70FB78002B34
:1054300031D0FB78032B2ED87B680022DA77FA78FC
:105440007B685A607B685B68022B0CD0032B12D000
:10545000012B00D017E07B68114A1A607B684FF47B
:1054600080729A600FE07B680E4A1A607B684FF486
:1054700000729A6007E07B680B4A1A607B684FF401
:1054800080629A6000BF7B680C3318464FF0FF3192
:105490001322FFF79DF87B6818460837BD4680BD8C
:1054A00000200140002101400022014090B583B05E
:1054B00000AF78600B46FB707B681846FEF74CFF28
:1054C0007B68144A1A60FB78002B02D0FB78032B10
:1054D00004D97B689B6904225A6015E0FB78013B84
:1054E0005A010D4B134420201946FFF769FF04466B
:1054F000002C06D0FB7820461946FFF791FF234683
:1055000000E023467A6893617B6818460C37BD46F5
:1055100090BD00BFB0250108E010002080B58CB020
:1055200000AF78617B699B695B68032B4ADC7B6910
:105530009B699B681846012105F070F97B699B699E
:105540009B681846002105F069F907F12403184605
:1055500004F03CFD0023FB6231E07B699A69FB6A41
:10556000134408331B795BB2B3F1FF3F24D07B694E
:105570009A697B699969FB6A0B4408331B79DBB232
:105580003946084611461A4600F020F807F118037C
:105590003A4607CA83E80700BB8B7B62BA6907F10A
:1055A00024031046194604F083FC7B699A69FB6A60
:1055B00013440833FF221A71FB6A0133FB62FB6A52
:1055C0000F2BCAD93037BD4680BD00BF80B485B02F
:1055D00000AFF860B9601346FB71BB685B68012BD4
:1055E00004D0BB685B68022B40F0C980FB790F2BAD
:1055F00000F2C48001A252F823F000BF3D5600081B
:105600005156000865560008795600088D56000866
:10561000A1560008B5560008C9560008DD56000816
:10562000F156000805570008195700082D570008C3
:10563000415700085557000869570008FB68954A0C
:105640001A60FB6801229A80FB6801229A6096E04A
:10565000FB68904A1A60FB6802229A80FB6801226C
:105660009A608CE0FB688B4A1A60FB6804229A807F
:10567000FB6801229A6082E0FB68864A1A60FB6838
:1056800008229A80FB6801229A6078E0FB68814AD0
:105690001A60FB6810229A80FB6801229A606EE013
:1056A000FB687C4A1A60FB6820229A80FB68012212
:1056B0009A6064E0FB68774A1A60FB6840229A802F
:1056C000FB6801229A605AE0FB68724A1A60FB6824
:1056D00080229A80FB6801229A6050E0FB686E4A43
:1056E0001A60FB6801229A80FB6802229A6046E0F9
:1056F000FB68694A1A60FB6802229A80FB680222F2
:105700009A603CE0FB68654A1A60FB6801229A8057
:10571000FB6804229A6032E0FB68604A1A60FB680A
:1057200002229A80FB6804229A6028E0FB685B4AA8
:105730001A60FB6804229A80FB6804229A601EE0CB
:10574000FB68564A1A60FB6808229A80FB680422AC
:105750009A6014E0FB68514A1A60FB6810229A8034
:10576000FB6804229A600AE0FB684C4A1A60FB68F6
:1057700020229A80FB6804229A6000E000BFBB6888
:105780005B68032B40F0D580FB790F2B00F2D080B3
:1057900001A252F823F000BFD9570008ED570008C6
:1057A0000158000815580008295800083D580008FD
:1057B00051580008675800087D580008A55800088F
:1057C000B9580008CD580008E1580008F5580008FD
:1057D000095900081D590008FB682E4A1A60FB6829
:1057E00001229A80FB6801229A60A2E0FB68294AA4
:1057F0001A60FB6802229A80FB6801229A6098E096
:10580000FB68244A1A60FB6804229A80FB68012224
:105810009A608EE0FB681F4A1A60FB6808229A8033
:10582000FB6801229A6084E0FB681D4A1A60FB68ED
:1058300040229A80FB6820229A607AE0FB68184A2E
:105840001A60FB6880229A80FB6820229A6070E0D0
:10585000FB68134A1A60FB684FF480729A80FB68F9
:1058600020229A6065E0FB680D4A1A60FB684FF4DD
:1058700000729A80FB6820229A605AE0FB68084A0E
:105880001A60FB684FF480629A80FB6820229A605D
:105890004FE000BF00000240000402400008024048
:1058A00000140240FB68264A1A60FB6808229A80AE
:1058B000FB6820229A603CE0FB68224A1A60FB6881
:1058C00001229A80FB6804229A6032E0FB681D4A3C
:1058D0001A60FB6802229A80FB6804229A6028E022
:1058E000FB68184A1A60FB6804229A80FB6804224D
:1058F0009A601EE0FB68134A1A60FB6808229A80CF
:10590000FB6804229A6014E0FB680D4A1A60FB6889
:1059100010229A80FB6820229A600AE0FB68084AFD
:105920001A60FB6820229A80FB6820229A6000E0BF
:1059300000BF00BFF8681437BD465DF8047B7047B0
:105940000014024000080240B0B582B000AF786099
:1059500039607B68012B10D13A684FF6FF739A4289
:105960000BD1074B02241D4604E02846FFF74CFDEF
:105970002035013CB4F1FF3FF7D10837BD46B0BD3B
:10598000E010002080B500AF01204FF6FF71FFF757
:10599000DBFF80BD80B483B000AF78600123184680
:1059A0000C37BD465DF8047B704700BF80B483B000
:1059B00000AF7860012318460C37BD465DF8047BC4
:1059C000704700BF80B483B000AF0346FB71084B43
:1059D00097F907205209F97901F01F01012000FA17
:1059E00001F143F822100C37BD465DF8047B704787
:1059F00000E100E080B483B000AF0346FB71094BC7
:105A000097F907205209F97901F01F01012000FAE6
:105A100001F1603243F822100C37BD465DF8047B7B
:105A2000704700BF00E100E080B500AF124B1B786B
:105A300083F00103DBB2002B1CD00F4B01221A7044
:105A40004FF48040012104F08FFE0620FFF7BAFFDB
:105A50000720FFF7B7FF0820FFF7B4FF0920FFF783
:105A6000B1FF0A20FFF7AEFF1720FFF7ABFF28209A
:105A7000FFF7A8FF80BD00BF8011002080B582B075
:105A800000AF786079807A703B707B687A881A8082
:105A90007B687A781A727B683A785A72786800F074
:105AA00023F8B7F90230184600F008F902467B687F
:105AB0005A617B680C33184604F088FA7B685B896E
:105AC0001A467B68DA607B6802225A747B6800227F
:105AD0001A747B6800221A767B6800225A767B68EB
